:1002BA003F065B4F666D7D077F6FFEFDFBF7EFDF45
:0202CA00BF7FF4
:1002A800015F00016001C102C100012100022300B9
:0102B8000045
:10028300759850438920758DFD758BFDD28ED2AF45
:03029300D2AC22C8
:03000300DFFE22FB
:10000E00AE07AF061EEF600C7FF51200037FF512F0
:05001E00000380EE224A
:1002960030B4FD30B5FD7F0A12000E30B4FD30B526
:0202A600FD2237
:10012F00300075E52EB43506E52F6431600280127C
:10013F00E5316446601DE53264416017E533644E76
:10014F006011C2007E007F327D007B007A00792D26
:10015F0002022CE534B4320BE560C394135026052C
:10016F00608022E534B4330BE560D394014016155B
:10017F00608012E534B43006C28CC2938007E53438
:10018F00B43102D28CC2007E007F327D007B007AB8
:09019F0000792D12022C80882247
:1001EF001202CC12028320B40BE560C3941350109B
:1001FF000560800C20B50CE560D3940140021560BA
:10020F00120296E56014FF75F00A849002BA93F516
:0D021F0025EF75F00A84E5F093F52680C9FF
:10025800E4F580D2A6C2A6E5212F9002C493F580CA
:10026800D2A7C2A774252521F8E6F580D2A6C2A692
:0A0278000521E521B50503E4F52199
:010282002259
:0C02CC00438901D2AFD2A9D28CD2B92252
:03000B000201A847
:1001A800C0E0C083C082C0D075D000C000C005C008
:0101B800073F
:1001B900758CFC758A187D08E4FF120258E56014F5
:1001C900FFE522D39F4004C2938002D2930522E522
:0701D90022B413037522009C
:0F01E000D007D005D000D0D0D082D083D0E0326D
:030023000200B226
:1000B200C0E0C0F0C083C082C0D075D000C000C014
:0D00C20001C002C003C004C005C006C00795
:1000CF00309842C298AF99BF2408D20275230075A9
:1000DF00240030020F742D2524F8A6070524E524EB
:1000EF0070020523BF2307D200C20212012FC3E5FE
:1000FF00249432E52364809480400A75230075248C
:05010F0000C202C20065
:10011400D007D006D005D004D003D002D001D0003F
:0B012400D0D0D082D083D0F0D0E032E9
:03000000020026D5
:0C002600787FE4F6D8FD75816002006D63
:10022C00EF4E6012EF60010EEDBB010B89828A83E9
:10023C00F0A3DFFCDEFA2289F05007F709DFFCA9F6
:0C024C00F022BBFEFCF309DFFCA9F0224D
:100032000201EFE493A3F8E493A34003F68001F2F4
:1000420008DFF48029E493A3F85407240CC8C333CF
:10005200C4540F4420C8834004F456800146F6DF9E
:10006200E4800B01020408102040809002A8E47E84
:10007200019360BCA3FF543F30E509541FFEE49393
:10008200A360010ECF54C025E060A840B8E493A35A
:10009200FAE493A3F8E493A3C8C582C8CAC583CA85
:1000A200F0A3C8C582C8CAC583CADFE9DEE780BE3D
:0102B9000044
:00000001FF
