:020000040800F2
:100000000820002035300008E7010008E901000859
:10001000ED010008F1010008F501000800000000F2
:10002000000000000000000000000000F9010008CE
:10003000FB01000800000000FD0100083D3B000836
:100040004F3000084F3000084F3000084F30000894
:100050004F3000084F3000084F3000084F30000884
:100060004F3000084F3000084F3000084F30000874
:100070004F3000084F3000084F3000084F30000864
:100080004F3000084F3000084F3000084F30000854
:100090004F3000084F3000084F3000084F30000844
:1000A0004F3000084F3000084F3000084F30000834
:1000B000933D00084F3000084F3000084F300008D3
:1000C0004F3000084F3000084F3000084F30000814
:1000D0004F3000089D370008FB3800081939000828
:1000E0004F3000084F3000084F3000084F300008F4
:1000F0004F3000084F3000084F3000084F300008E4
:100100004F3000084F3000084F3000084F300008D3
:100110004F3000084F3000084F3000084F300008C3
:100120004F3000084F3000084F3000084F300008B3
:1001300000F002F800F048F80AA090E8000C8244B1
:100140008344AAF10107DA4501D100F03DF8AFF28E
:10015000090EBAE80F0013F0010F18BFFB1A43F0A5
:1001600001031847485D0000685D0000103A24BF95
:1001700078C878C1FAD8520724BF30C830C144BF0C
:1001800004680C607047000000230024002500264E
:10019000103A28BF78C1FBD8520728BF30C148BFEA
:1001A0000B607047642904F06381002070471FB51D
:1001B00004F0BCFE04000020002104F009FF401CF4
:1001C00060601FBD10B510BD04F078FE1146FFF74A
:1001D000EEFF00F004FF04F09FFE03B4FFF7F2FF10
:1001E00003BC04F0E7FE704700BFFEE700BFFEE778
:1001F00000BFFEE700BFFEE7704770477047000092
:100200002DE9F04786B00546284603F04FFC002450
:10021000ABE0285D232813D10026601C84B208E0DF
:10022000285D06EB860100EB4100303886B2601C89
:1002300084B2285D0028EBD0285D5028E8D0EFE795
:10024000285D502815D14FF00009601C84B209E0E8
:10025000285D09EB890100EB410030381FFA80F975
:10026000601C84B2285D00287FD0285D54287CD093
:10027000EEE7285D542876D14FF0000A601C84B266
:1002800009E0285D0AEB8A0100EB410030381FFAD3
:1002900080FA601C84B2285D10B1285D2128F0D15D
:1002A000082E62DA40F6C41081455EDCB9F5FA7FAB
:1002B0005BDB8000824558DC484605F03DFB074685
:1002C000FD4800EB06108168384605F0E1FA0DD1D3
:1002D000484605F0F2F8F94AF94BCDE9040104F07B
:1002E000BFFE074605F0BCF81FFA80F9BAF1140FFB
:1002F00001DA4FF0140AF04800EB0610A0F8029063
:10030000ED4800EB0610A0F804A0EB4901EB061144
:10031000888805F0D2F807460022EA4B04F048FF2F
:10032000CDE90201E44901EB0611488805F004FB20
:100330008046E14800EB06108168404605F0C0FBAE
:10034000074605F00BFACDE90001DDE9022304F0D0
:100350002FFFCDE9040104F051FED74901EB06114E
:10036000C86002E0FFE7601C84B2285D00287FF4CB
:1003700050AF06B0BDE8F08710B504464FF4806179
:10038000D14804F09DFAD1480068000300EBC41185
:100390008022CD4803F0F5FECB48FFF731FF22461F
:1003A000CBA1D14804F026F8CF4803F057FB10BD8D
:1003B00070B5002500240FE0BF4800EB0410C168B1
:1003C000284605F0F7F905460021284605F060FAB1
:1003D00001D0012070BD641C082CEDDB0020F9E782
:1003E00010B5FFF7E5FF00284AD1C0480078002883
:1003F00046D1BF480068FFF7BFFFBE480068BE494E
:10040000096888421EDABA480068BB490968884210
:1004100012D1B8480068B6490860B848006850B1C1
:10042000B7480068401EB64908600846006810B921
:100430000120AE49087010BDAD480068401CAC49B1
:1004400008601DE0AA480068AB490968884212D1DB
:10045000A8480068A6490860A848006850B1A848A4
:100460000068401EA64908600846006810B90120CF
:100470009E490870DFE79E480068401E9C4908605E
:1004800000BFD8E704E003788B4200D10270401C23
:100490000378002BF7D170470146002215E0087859
:1004A000472811D1491C07E0087802EB820300EBD2
:1004B0004300303882B2491C0878232802D00878DB
:1004C0002428F1D110467047491C08780028E6D14D
:1004D000401EF8E770B5054600242846FFF7DCFF0C
:1004E0000446601C02D0A879232803D085A003F01D
:1004F000B5FA70BDE001C11700EB11510913B0EB63
:10050000013102D1E00103F0B6FE7B223C212846F6
:10051000FFF7B8FF7D223E212846FFF7B3FF2846AC
:1005200004F06AF9401C86B268480068000300EBDA
:10053000C4113246284603F0BDFE73A003F08EFAC4
:1005400000BFD6E770B504460D46B4F57A7F02DBEE
:1005500040F2E73406E014F57A7F01DC6B4C01E0F1
:1005600004B90124B5F57A7F02DB40F2E73506E0F5
:1005700015F57A7F01DC654D01E005B90125002DF7
:1005800008DD0121624802F08FFBA9B2604802F049
:1005900089FB08E0684281B25D4802F085FB0121D9
:1005A0005B4802F07FFB002C08DD0121594802F076
:1005B0007BFBA1B2574802F075FB08E0604281B2B4
:1005C000544802F071FB0121524802F06BFB70BDF0
:1005D00002680B6803600A60704713B5DDE900012B
:1005E000884203DD01A96846FFF7F2FF0EE000999B
:1005F000080303F040FE48A13B48009A03F0FAFECE
:10060000394803F02BFA0098401C0090DDE9000106
:100610008842ECDD0020444908601CBD13B5DDE9CB
:100620000001884203DD01A96846FFF7D1FF17E00A
:100630004FF48061244804F043F924480068020321
:10064000009802EBC01180221F4803F09AFD1E485B
:1006500003F004FA35A003F001FA0098401C009062
:10066000DDE900018842E3DD1CBD2DE9F14F86B0D4
:100670002FA1154802F084FE8246BAF1000F5FD028
:1006800001201A4908704FF0000B10E000200A49C1
:1006900001EB0B11C860084901EB0B11886805F0EC
:1006A0002BF9054901EB0B1148800BF1010BBBF154
:1006B000080FEBDB40E00000100100209A999999A7
:1006C0009999B93F00003440900500208000002037
:1006D000646F5F67726F75705F6F6E63652025640E
:1006E000204F4B0D0A0000009001002088000020E0
:1006F000B0000020B8000020BC000020C000002096
:10070000B4000020450000004100000019FCFFFF7C
:1007100000080040000400404572617365202564B4
:10072000204F4B2100000000840000200D0A000033
:100730002444535421000000FBA003F0B7F97DE1ED
:10074000FCA1FE4802F01CFE8246BAF1000F26D042
:1007500004AAFBA1069803F065FF0028EFD0002053
:10076000FA49049A01EB0211C860F849049A01EBB6
:100770000211886805F0C0F8F449049A01EB0211EF
:100780004880F3A1F648049A03F034FEF44803F0DD
:100790008DF94FF48061F24804F092F84EE1F1A136
:1007A000E64802F0EDFD8246BAF1000FC7D1EFA195
:1007B000E24802F0E5FD8246BAF1000F0CD002AB30
:1007C00003AAECA1069803F02DFF0028B7D0DDE9BD
:1007D0000210FFF723FF31E1E9A1D84802F0D0FD74
:1007E0008246BAF1000F0CD002AB03AAE6A106982C
:1007F00003F018FF0028A2D0DDE90210FFF7EDFE9C
:100800001CE1E4A1CD4802F0BBFD8246BAF1000F25
:100810000DD003AAE1A1069803F004FF00288ED0B2
:100820000398FFF7A9FD0120DF49087006E1DFA169
:10083000C24802F0A5FD8246BAF1000F20D0DD4883
:10084000DD4BDE4ADEA10090069803F0EBFE0028A7
:10085000A4D0DA480068D8490968884204D0D7484B
:100860000068DB49086003E0D4480068FFF784FDB6
:10087000D0480068D74908600020CB490870DDE007
:10088000D5A1AE4802F07CFD8246BAF1000F0CD033
:1008900002AB03AAD2A1069803F0C4FE00289AD0A6
:1008A000DDE90210FFF74EFEC8E0D0A1A34802F038
:1008B00067FD8246BAF1000F15D0CE480078401E81
:1008C000CC4908700846007808B90120087000215A
:1008D0000D2002F0EDFB642002F09BFD01210D20B4
:1008E00002F0E6FBAAE0C4A1944802F049FD82466A
:1008F000BAF1000F16D0BF480078401CBD490870FF
:1009000008460078042801D10320087000210D203A
:1009100002F0CEFB642002F07CFD01210D2002F0EC
:10092000C7FB8BE0B6A1854802F02AFD8246BAF1EA
:10093000000F05D04FF47A710846FFF703FE7DE003
:10094000B3A17E4802F01CFD8246BAF1000F04D02C
:10095000B3490846FFF7F6FD70E0B2A1774802F010
:100960000FFD8246BAF1000F04D0AD494842FFF7AF
:10097000E9FD63E0AEA1714802F002FD8246BAF1E2
:10098000000F05D04FF47A714842FFF7DBFD55E0C8
:10099000AAA16A4802F0F4FC8246BAF1000F42D0E4
:1009A000A8A003F083F84FF0000B38E040F2DC50D1
:1009B000664901EB0B1148804FF4FA60634901EB83
:1009C0000B118880614901EB0B11888804F075FDDB
:1009D00006460022A04B04F0EBFB04460D465B49A3
:1009E00001EB0B11488804F0A7FF0746574800EBBE
:1009F0000B108168384605F063F8064604F0AEFE39
:100A000022462B46CDE9000104F0D2FB804604F0DB
:100A1000F5FA4E4901EB0B11C8600BF1010BBBF16C
:100A2000080FC3DB0AE08DA1444802F0A9FC82460E
:100A3000BAF1000F02D08BA003F010F807B0BDE8A8
:100A4000F08F10B58848007848B3884800780128AE
:100A500003D13A48FFF709FE16E0844800780228DF
:100A600003D13648FFF7CCFB0EE08048007803281E
:100A700003D13248FFF7C4FB06E07C480078042825
:100A800002D12E48FFF726FD0020784908707649EC
:100A90000870012240F22551754801F00EF910BD91
:100AA0000146002901DD084670474842FCE710B5C1
:100AB00070484078732800D010BD6E49097AC1F1A2
:100AC0007F00FFF7EDFF052802DA7F2069490872F1
:100AD00068498979C1F17F00FFF7E2FF052802DA52
:100AE0007F20644988716348007AC0F17F00C000AC
:100AF000614908605F488079C0F17F00C0005F49AC
:100B000008605D4800685E490968884205D15B4815
:100B100000685C490968884204D058480168564812
:100B20000068B1E0BAE00000233235355044535438
:100B300021000000244453543A0000009005002096
:100B4000244453543A256421000000001001002081
:100B5000232530336450445354210D0A0000000013
:100B60009001002024525354210000002443475098
:100B70003A000000244347503A25642D25642100A3
:100B8000244445473A000000244445473A25642D53
:100B900025642100244447533A000000244447536D
:100BA0003A256421000000008800002024444754B6
:100BB0003A000000C0000020BC000020B800002067
:100BC000244447543A25642D25642C2564210000D3
:100BD000B0000020B4000020244443523A0000003A
:100BE000244443523A25642C25642100244457416F
:100BF0002100000089000020244457442100000007
:100C0000244341525F464152574152442100000063
:100C1000244341525F4241434B574152442100001B
:100C200018FCFFFF244341525F4C4546542100000D
:100C3000244341525F5249474854210024444A52B8
:100C400021000000233235355031353030543230F8
:100C50003030210D0A000000000034402447455484
:100C60004121000041414100F8000020F90000202E
:100C70000038014004010020A0000020A400002052
:100C8000A8000020AC000020FFF75CFCFE480068D4
:100C9000FE490860FE480068FE49086000BF0BE797
:100CA0002DE9F04107460E4600257878397800EBAB
:100CB0000120F9490880F9480088098888427DD0D8
:100CC000F5480088F6490880F3480088F349098808
:100CD0000840F14908800024DEE00120A040EE49F0
:100CE000098808426BD10120A040EC4909880842DC
:100CF00072D04FF48061EB4803F0E2FD732E0DD10A
:100D0000E94951F8240003F077FD8046E64850F8A1
:100D100024104246E34803F08EFD10E0412E0DD131
:100D2000E24951F8240003F067FD8046DF4850F89F
:100D300024104246DB4803F07EFD00E0AAE0DCA17F
:100D4000D84802F01DFBC5B21DB10021681ED54A6E
:100D50001154D8A1D34802F013FBB8B1002240F2DD
:100D60002551D54800F0A9FF0020D4490870CD498D
:100D70000B31D34803F01CFDD149CA4803F018FDDC
:100D80000120CE490870CF49087020E0CEA1C548A7
:100D900002F0F6FAD8B1002240F22551C64800F020
:100DA0008CFF0020C5490870BE490B31C44803F0D0
:100DB000FFFCC349BB4803F0FBFC02E07EE068E0B7
:100DC0000AE00120BD4908700220BE4908704FF6B4
:100DD000FF70B24908805CE04FF48061B14803F0D5
:100DE0006FFD732E0DD1B04951F8240003F004FDBE
:100DF0008046AD4850F824104246AA4803F01BFD37
:100E000010E0412E0DD1A94951F8240003F0F4FC63
:100E10008046A64850F824104246A24803F00BFD35
:100E200000E037E0A2A19F4802F0AAFAC5B285B35C
:100E30009C4948199FA102F0A3FA90B19948411921
:100E40009F4803F0B5FC9E4803F0D6FC401E9C4929
:100E500000220A54934803F0ABFC9248FFF705FCCC
:100E600017E09049481998A102F08AFA88B18D4894
:100E70004119934803F09CFC914803F0BDFC401ECF
:100E80008F4900220A54874803F092FC8548FFF7F7
:100E9000B7F900BF601CC4B2102CFFF61EAF80482B
:100EA00000887E49088000210D2002F001F90A2007
:100EB00002F0AFFA01210D2002F0FAF8BDE8F0814E
:100EC00010B5824800788249C978884205D17F48A8
:100ED00040787F49097988420BD07D484178C01C11
:100EE000FFF7DEFE7A48C0787849087078480079C4
:100EF000487010BD10B57748006877490968401AF6
:100F0000142800D210BD7348006873490860704807
:100F100003F010F800BFF5E710B56E4800686F49A0
:100F20000968401AB0F57A7F14D96A4800686B499D
:100F300008606B48007820B100210E2002F0B8F85C
:100F400003E001210E2002F0B3F865480078C043A9
:100F50006349087010BD10B500210D2002F0A8F8FB
:100F600000210E2002F0A4F8642002F052FA0121C0
:100F70000D2002F09DF801210E2002F099F8642066
:100F800002F047FA00210D2002F092F800210E2015
:100F900002F08EF8642002F03CFA01210D2002F0EC
:100FA00087F801210E2002F083F8642002F031FA64
:100FB00000210D2002F07CF800210E2002F078F8CC
:100FC000642002F026FA01210D2002F071F80121BF
:100FD0000E2002F06DF8642002F01BFA10BD02F042
:100FE00089F902F047F802F0B5F902F04DF802F085
:100FF000D2F802F027F903F064F83A480088A0F527
:101000006F41163905D003E000210D2002F050F8A1
:10101000FAE702F040FF472144F6206002F098FD15
:10102000EF214FF47A7002F0C6FDEF214FF47A7091
:1010300002F00AFE00210846FFF784FA4FF4E1307F
:1010400002F099FA012240F225511B4800F035FECA
:101050004FF4E13002F03EFA012240F225512248DD
:1010600000F02BFE4FF4E13002F0E0F9012240F2F3
:1010700025511E4800F021FE62B61DA002F016FDAB
:1010800002F050FD3CE00000A0000020A80000207D
:10109000A4000020AC0000209C0000209A0000204A
:1010A0009E0000209005002000000020400000204D
:1010B0005E0000002400000000380140F80000201D
:1010C00090010020F900002023000000980000207B
:1010D00004010020F4000020940000208C00002077
:1010E0009000002000010020004400400048004023
:1010F00023323535503135303054323030302100E4
:10110000FFF729FF0BE0FFF707FFFFF7F3FEFFF7FD
:10111000D7FEFFF7CCFCFFF794FCFFF761F9F2E78D
:10112000012080F3138800BF00BF0748006800F467
:10113000E06006490843001D03490860BFF3408F83
:1011400000BF00BFFEE700000CED00E00000FA0564
:101150000CB50020019000906B48006840F480308E
:101160006949086000BF6848006800F400300090DA
:101170000198401C0190009818B90198B0F5A06F33
:10118000F1D16148006810F4003F02D001200090C6
:1011900001E0002000900098012842D15B480068DF
:1011A00040F01000594908600846006820F003002C
:1011B00008600846006840F0020008605248406835
:1011C000514948600846406848600846406840F415
:1011D000806048600846406820F47C1048600846FB
:1011E000406840F4E81048600846006840F08070AD
:1011F000086000BF4448006810F0007FFAD0424801
:10120000406820F00300404948600846406840F0CC
:101210000200486000BF3C48406800F00C0008280D
:10122000F9D10CBD10B5FFF793FF10BD10B53648CE
:10123000006840F0010034490860084640683449BD
:1012400008403149486008460068324908402E4944
:1012500008600846006820F480200860084640685E
:1012600020F4FE0048604FF41F008860FFF7DAFFAB
:101270004FF000602849086010BD10B50021002023
:101280000022214B5B6803F00C0121B1042906D038
:10129000082928D107E0214B214C236027E01F4B70
:1012A0001F4C236023E0184B5B6803F47010164B4F
:1012B0005B6803F48032022303EB904022B9194BA0
:1012C0004343174C23600DE00F4B5B6813F4003F62
:1012D00004D0144B4343124C236003E00F4B4343B1
:1012E0000F4C236003E00D4B0D4C236000BF00BF8B
:1012F000054B5B68C3F303130B4CE15C084B1B68A5
:10130000CB40074C236010BD00100240002002407B
:101310000000FFF8FFFFF6FE08ED00E000127A0083
:10132000C400002000093D00C800002010B504469C
:10133000CA48844208D10121042000F027FB002183
:10134000042000F023FB46E0C548844208D1012177
:10135000082000F01BFB0021082000F017FB3AE0FA
:10136000C048844208D10121102000F00FFB002169
:10137000102000F00BFB2EE0BB48844208D1012175
:10138000202000F003FB0021202000F0FFFA22E0E3
:10139000B648844208D10121402000F0F7FA00212C
:1013A000402000F0F3FA16E0B148844208D1012150
:1013B000802000F0EBFA0021802000F0E7FA0AE03C
:1013C000AC48844207D10121801500F0DFFA0021EA
:1013D000A01500F0DBFA10BD10B50121084600F0A1
:1013E000D5FA0021012000F0D1FA10BD2DE9F0411D
:1013F000024600250026002000230024002791F843
:1014000003C00CF00F0591F803C01CF0100F03D0BF
:1014100091F802C04CEA050591F800C0BCF1000F3C
:1014200031D0146800202BE04FF0010C0CFA00F3CF
:10143000B1F800C00CEA03069E4220D183004FF0B1
:101440000F0C0CFA03F7BC4305FA03FC4CEA040446
:1014500091F803C0BCF1280F06D14FF0010C0CFA33
:1014600000FCC2F814C00AE091F803C0BCF1480FB8
:1014700005D14FF0010C0CFA00FCC2F810C0401C62
:101480000828D1D31460B1F800C0BCF1FF0F34DDDF
:10149000546800202EE000F1080C4FF0010808FA13
:1014A0000CF3B1F800C00CEA03069E4221D1830080
:1014B0004FF00F0C0CFA03F7BC4305FA03FC4CEA9F
:1014C000040491F803C0BCF1280F05D100F1080C09
:1014D00008FA0CF8C2F8148091F803C0BCF1480F68
:1014E00007D100F1080C4FF0010808FA0CF8C2F817
:1014F0001080401C0828CED35460BDE8F0814FF620
:10150000FF710180022181700421C1707047024681
:10151000002093680B4201D0012000E000207047BA
:101520000146886880B2704702460020D3680B42AB
:1015300001D0012000E0002070470146C86880B259
:10154000704701617047416170470AB1016100E075
:1015500041617047C16070474FF480320A43826135
:101560008161826182698269704702460020424B34
:1015700018684FF68073184040EA021008433E4B4B
:10158000186070473D49C8617047F0B50A460023AE
:1015900000240021002500F00046B6F1004F02D1E2
:1015A000354EF16901E0344E7168C0F3034583B2F2
:1015B00000F44016B6F5401F08D121F070612E4EA0
:1015C000766826F070662C4F7E6012E000F480167C
:1015D000B6F5801F06D1032606FA05F4A14341F0B3
:1015E000706106E0460D360103FA06F6B14341F09C
:1015F000706122B1460D360103FA06F6314300F060
:101600000046B6F1004F02D11B4EF16101E01A4EC7
:101610007160F0BD30B500228B071C0F0F2303FA59
:1016200004F2154B08338C1053F824309343124CBA
:1016300008348D1044F8253023468C1053F824309C
:101640008C07240F00FA04F423430B4C08348D104C
:1016500044F8253030BD0A49086070470008014051
:10166000000C01400010014000140140001801402E
:10167000001C014000200140000001400000204209
:10168000DC002042DD48006840F00100DB490860D2
:1016900008464068DA490840D8494860084600686A
:1016A000D8490840D54908600846006820F48020E1
:1016B00008600846406820F4FE0048604FF41F00B0
:1016C00088607047CD49096821F48031CB4A1160A8
:1016D0001146096821F480211160B0F5803F03D0E4
:1016E000B0F5802F0ED106E0C449096841F480317D
:1016F000C24A116007E0C149096841F4A021BF4A0C
:10170000116000E000BF00BF704710B50146002225
:10171000002300204A11012A02D1B84C236806E0B8
:10172000022A02D1B54C236A01E0B44C636A01F08D
:101730001F02012494401C4201D0012000E000203F
:1017400010BD38B5002000900024002500BF3120D6
:10175000FFF7DBFF05460098401C00900098B0F5AD
:10176000A06F01D0002DF2D03120FFF7CEFF08B1DD
:10177000012400E00024204638BD014600209F4A95
:10178000106820F0F80040EAC100106070479E49E0
:101790000860704702460020984B586820F47C107F
:1017A00042EA01031843954B586070479649086612
:1017B000704701460020914A506820F0030008431A
:1017C000506070478D48406800F00C00704701463B
:1017D00000208A4A506820F0F000084350607047AB
:1017E00001460020854A506820F4E06008435060BC
:1017F000704701460020814A506820F4605040EA5A
:10180000C1005060704729B17C4A527A02437B4B39
:101810005A7204E0794A527A8243784B5A7270477E
:101820007A490860704701460020744A506820F4E5
:1018300040400843506070470021754A11706F4A5C
:1018400082F82010012802D0042808D103E00121E9
:101850006F4A117004E005216D4A117000E000BF6D
:1018600000BF70476B49086070476449096A0143CB
:10187000624A11627047674944390860704730B561
:1018800000210022002400235C4D6D6805F00C014E
:1018900021B1042905D0082923D105E05E4D05605A
:1018A00022E05D4D05601FE0544D6D6805F4701237
:1018B000524D6D6805F48034022505EB92421CB947
:1018C000564D554305600BE04C4D6D6815F4003FD7
:1018D00003D0524D5543056002E04F4D554305601E
:1018E00002E04D4D056000BF00BF444D6D6805F03E
:1018F000F00109094A4D6B5C0568DD4045603F4DCC
:101900006D6805F4E061090A454D6B5C4568DD4092
:1019100085603A4D6D6805F46051C90A404D6B5CB5
:101920004568DD40C560354D6D6805F44041890B63
:101930003C4D6B5CC568B5FBF3F5056130BD29B165
:101940002E4A526902432D4B5A6104E02B4A5269D8
:1019500082432A4B5A61704729B1284A926902434F
:10196000264B9A6104E0254A92698243234B9A618F
:10197000704729B1214AD2690243204BDA6104E061
:101980001E4AD26982431D4BDA61704729B11B4A56
:10199000D2680243194BDA6004E0184AD2688243E5
:1019A000164BDA60704729B1144A12690243134B8F
:1019B0001A6104E0114A12698243104B1A617047A0
:1019C00014494039086070470F49C86470470B4993
:1019D000C87170470948406A40F080700749486202
:1019E000704701460020054A92680A4201D0012052
:1019F00000E00020704701498872704700100240E3
:101A00000000FFF8FFFFF6FE00004242D80042420D
:101A1000201002408004424200127A0000093D007A
:101A2000D8000020E800002031490143314A11600C
:101A3000704770B5002100230F22C4780CB32D4CE1
:101A4000246804F4E064C4F5E064210AC1F10403ED
:101A5000CA40447804FA03F1847814402143090110
:101A6000254C0678A155047804F01F050124AC40EC
:101A700005786D114FF0E02606EB8505C5F80041AD
:101A800009E0047804F01F050124AC401B4D0678E2
:101A9000761145F8264070BD194A0A400243154B9D
:101AA0001B1F1A60704739B1124A121D1268024397
:101AB000104B1B1D1A6006E00E4A121D126882436D
:101AC0000C4B1B1D1A607047042808D14FF0E02111
:101AD000096941F004014FF0E022116107E04FF085
:101AE000E021096921F004014FF0E0221161704703
:101AF0000000FA050CED00E000E400E080E100E009
:101B000080FFFF1F10B50446FB48844209D1012124
:101B10008803FFF73BFF00214FF48040FFF736FFBB
:101B200032E0F648844209D101214804FFF73BFF27
:101B300000214FF40030FFF736FF25E0F0488442E3
:101B400009D101218804FFF72EFF00214FF48020E6
:101B5000FFF729FF18E0EB48844209D10121C804AE
:101B6000FFF721FF00214FF40020FFF71CFF0BE0DF
:101B7000E548844208D101210805FFF714FF002140
:101B80004FF48010FFF70FFF10BD2DE9F04786B02E
:101B900005460E460024A24600BFA1460027B08994
:101BA00000B100BF2F462C8A4CF6FF700440F0882D
:101BB00004432C82AC894EF6F3100440B08831897E
:101BC0000843718908430443AC81AC8A4FF6FF4057
:101BD0000440B0890443AC8201A8FFF750FEC64818
:101BE000874202D1DDF810A001E0DDF80CA0A88941
:101BF00010F4004F08D00AEBCA0000EB0A1031685D
:101C00004900B0FBF1F807E00AEBCA0000EB0A104C
:101C100031688900B0FBF1F86420B8FBF0F00401F2
:101C20002009642101FB1089A88910F4004F08D015
:101C3000322000EBC900B0FBF1F000F007000443D4
:101C400008E0322000EB09106421B0FBF1F000F055
:101C50000F0004432C8106B0BDE8F0874FF4165105
:101C6000016000218180C18001810C21418100211E
:101C70008181704710B502460020108A4FF2FF03A1
:101C800018400B884C8823438C882343CC882343FB
:101C90001843108210BD0021018041808180C180E5
:101CA000704721B1828942F40052828104E0828926
:101CB0004DF6FF731A4082817047F0B50346002449
:101CC000002600250020A1F510676A3F00D100BF63
:101CD0001846C1F3421401F01F06012707FA06F562
:101CE000012C01D10C3004E0022C01D1103000E0B5
:101CF00014301AB107682F43076002E00768AF434A
:101D00000760F0BD1AB1838A0B43838202E0838AA5
:101D10008B4383827047028A4FF6F0731A40028227
:101D2000028A0A430282704782894FF2FF731A4087
:101D3000828182890A438281704721B1828942F07F
:101D40000202828104E082894FF6FD731A4082818B
:101D50007047028A4FF6DF731A400282028A0A43F2
:101D60000282704721B1028A42F48042028204E07A
:101D7000028A4BF6FF731A4002827047C1F30802D1
:101D80008280704701468888C0F3080070478189C7
:101D900041F0010181817047028BD2B20283028B34
:101DA00042EA012202837047028B02F47F420283DF
:101DB000028B0A430283704721B1828A42F02002DB
:101DC000828204E0828A4FF6DF731A408282704773
:101DD00021B1828A42F01002828204E0828A4FF6A8
:101DE000EF731A408282704721B1828A42F0080262
:101DF000828204E0828A4FF6F7731A40828270472B
:101E000021B1828942F40042828103E08289C2F3D7
:101E10000E028281704721B1828A42F4006282827E
:101E200004E0828A4FF2FF731A4082827047828AEE
:101E30004FF6FB731A408282828A0A43828270477D
:101E400021B1828A42F00202828204E0828A4FF645
:101E5000FD731A408282704702460020B1F5007F70
:101E600000D100BF13880B4201D0012000E0002008
:101E7000704701F40072B2F5007F00D100BFCA4381
:101E80000280704770B50246002400230025002020
:101E9000A1F510666A3E00D100BFC1F3421501F002
:101EA0001F03012606FA03F3012D02D19689334060
:101EB00006E0022D02D1168A334001E0968A3340B3
:101EC0000C12012606FA04F41688344013B10CB142
:101ED000012000E0002070BD10B500220023A1F514
:101EE00010646A3C00D100BF0A1201249440A3B2DE
:101EF000DC43048010BD0000003801400044004075
:101F000000480040004C00400050004010B504461E
:101F1000FE48844208D10121C014FFF737FD00219B
:101F2000E014FFF733FDC4E0B4F1804F08D1012184
:101F30000846FFF738FD00210120FFF734FDB8E027
:101F4000F348844208D101210220FFF72CFD002133
:101F50000220FFF728FDACE0EE48844208D10121C1
:101F60000420FFF720FD00210420FFF71CFDA0E066
:101F7000E948844208D101210820FFF714FD00211F
:101F80000820FFF710FD94E0E448844208D10121C5
:101F90001020FFF708FD00211020FFF704FD88E066
:101FA000DF48844208D101212020FFF7FCFC0021FA
:101FB0002020FFF7F8FC7CE0DA48844208D10121B8
:101FC0004014FFF7E3FC00216014FFF7DFFC70E032
:101FD000D548844209D10121C804FFF7D7FC00216C
:101FE0004FF40020FFF7D2FC63E0D048844209D1CF
:101FF00001210805FFF7CAFC00214FF48010FFF70C
:10200000C5FC56E0CA48844209D101214805FFF7C2
:10201000BDFC00214FF40010FFF7B8FC49E0C548B3
:10202000844208D101214020FFF7BDFC002140205F
:10203000FFF7B9FC3DE0C048844208D1012180206F
:10204000FFF7B1FC00218020FFF7ADFC31E0BB4879
:10205000844208D101218015FFF7A5FC0021A015BD
:10206000FFF7A1FC25E0B648844209D1012108040C
:10207000FFF78CFC00214FF48030FFF787FC18E05D
:10208000B048844209D101214804FFF77FFC0021B8
:102090004FF40030FFF77AFC0BE0AB48844208D1E4
:1020A00001218804FFF772FC00214FF48020FFF724
:1020B0006DFC10BD00220288944B98420ED0994BC3
:1020C00098420BD0B0F1804F08D0914B984205D088
:1020D000904B984202D0904B984204D14FF68F73A8
:1020E0001A404B881A438D4B984207D08C4B98422C
:1020F00004D04FF6FF431A40CB881A4302808B88E6
:1021000083850B880385814B98420BD0854B984281
:1021100008D08B4B984205D08A4B984202D08A4B0C
:10212000984201D10B7A038601238382704770B5F0
:10213000002400220023058C4FF6FE7635400584EE
:10214000028C8388048B4FF68F752C40B51E2C4073
:102150000D882C43751E2A400D892A434D882A4339
:102160006A4DA8420BD06F4DA84208D0744DA842CA
:1021700005D0744DA84202D0734DA84213D14FF63A
:10218000F7752A404D892A434FF6FB752A408D8802
:102190002A434FF6FF652B404FF6FF552B408D89A4
:1021A0002B43CD892B4383800483CD88858602848D
:1021B00070BD70B5002400220023058C4FF6EF7629
:1021C00035400584028C8388048B48F6FF752C40CB
:1021D0004FF6FF452C400D884FF6FF7606EA0525A1
:1021E0002C434FF6DF752A400D8906EA05152A4370
:1021F0004D8806EA05152A43444DA84202D0494DB0
:10220000A8421DD14FF67F752A404D894FF6FF76C3
:1022100006EA05152A434FF6BF752A408D8806EA5F
:1022200005152A434FF6FF352B404FF2FF752B4023
:102230008D8906EA85052B43CD8906EA85052B4362
:1022400083800483CD880587028470BD70B5002427
:1022500000220023058C4FF6FF6635400584028C72
:102260008388848B4FF68F752C404FF6FC752C407D
:102270000D882C434FF6FF552A400D894FF6FF7607
:1022800006EA05252A434D8806EA05252A431F4DFF
:10229000A84202D0234DA8421DD14FF2FF752A401B
:1022A0004D894FF6FF7606EA05252A434FF6FF359E
:1022B0002A408D8806EA05252A434EF6FF752B40F5
:1022C0004DF6FF752B408D8906EA05152B43CD8908
:1022D00006EA05152B4383808483CD888587028495
:1022E00070BD70B5002200230024058C4EF6FF76E9
:1022F00035400584038C8488828B48F6FF752A401C
:102300004FF6FF452A400D8820E00000002C0140D8
:102310000004004000080040000C00400010004095
:102320000014004000340140004C014000500140C6
:102330000054014000180040001C004000200040F4
:102340000040014000440140004801404FF6FF7644
:1023500006EA05252A434DF6FF752B400D8906EA4E
:1023600005352B434D8806EA05352B43FA4DA84227
:1023700002D0FA4DA84208D14BF6FF752C408D894A
:102380004FF6FF7606EA85152C4384808283CD883C
:10239000A0F84050038470BD828B4FF2FF331A4087
:1023A0008283828B4FF6FF7303EA01231A438283F1
:1023B0007047F0B50C461546002200210026078C18
:1023C0004EF6FF7C07EA0C070784828B018C4FF6E0
:1023D000FF7707EA043640F6FF473A404FF6FF77AB
:1023E00007EA05273A434FF6FF7707EA03373A43F0
:1023F000D94FB8420ED0D94FB8420BD0B0F1804F70
:1024000008D0D74FB84205D0D64FB84202D0D64FE9
:10241000B84206D14DF6FF77394046F4805739432C
:1024200005E047F6FF57394044F48057394382832B
:102430000184F0BD828B4FF6F3731A408283828B46
:102440000A4382837047F0B50C46154600220021EE
:102450000026078C4FF6FF6C07EA0C070784828B77
:10246000018C4FF6FF7707EA04264FF60C773A40C7
:102470004FF6FF7707EA03172F433A43B64FB842A8
:102480000ED0B64FB8420BD0B0F1804F08D0B44F49
:10249000B84205D0B34FB84202D0B34FB84206D1CC
:1024A0004FF6FF57394046F48077394305E04FF245
:1024B000FF57394044F48077394382830184F0BD6B
:1024C000028B4FF2FF331A400283028B4FF6FF73E9
:1024D00003EA01231A4302837047F0B50C46154600
:1024E000002200210026078C4FF6EF7C07EA0C073C
:1024F0000784028B018C4FF6FF7707EA041640F63B
:10250000FF473A404FF6FF7707EA03373A434FF663
:10251000FF7707EA05273A438F4FB8420ED08F4F17
:10252000B8420BD0B0F1804F08D08D4FB84205D0E3
:102530008C4FB84202D08C4FB84206D14FF6DF77AD
:10254000394046F01007394305E04FF65F773940D0
:1025500044F01007394302830184F0BD028B4FF62B
:10256000F3731A400283028B0A4302837047F0B56B
:102570000C46154600220021068C4FF6FE773E40A1
:102580000684028B018C4FF60C7632407E1C06EAE4
:1025900003162E433243704EB0420ED06F4EB042FF
:1025A0000BD0B0F1804F08D06D4EB04205D06D4ECB
:1025B000B04202D06C4EB04206D14FF6FD763140AB
:1025C00044F00106314305E04FF6F576314044F022
:1025D0000106314302830184F0BD70B505460C4607
:1025E0005D4885420ED05D4885420BD0B5F1804FE5
:1025F00008D05B48854205D05A48854202D05A48E7
:10260000854200D100E000BF208850B92389A2880C
:1026100061882846FFF7ABFFE1882846FFF79EFF59
:1026200025E0208804280AD12389A28861882846C9
:10263000FFF753FFE1882846FFF742FF17E02088A5
:1026400008280AD12389A28861882846FFF7FBFE63
:10265000E1882846FFF7EEFE09E02389A288618819
:102660002846FFF7A6FEE1882846FFF795FE70BDD5
:102670002DE9F04105460C4600260127608808B97F
:10268000022600E00026A088012801D1022700E0F0
:1026900001272088A0B92389A28861882846FFF7EE
:1026A00066FFE1882846FFF759FF23893A463146FD
:1026B0002846FFF712FFE1882846FFF701FF13E0E5
:1026C0002389A28861882846FFF707FFE18828460A
:1026D000FFF7F6FE23893A4631462846FFF747FFC3
:1026E000E1882846FFF73AFFBDE8F0810A884B8869
:1026F0001A438B881A43CB881A430B891A434B8998
:102700001A438B891A43A0F8442070474FF6FF7193
:10271000818000210180C1804180017270470021C9
:10272000018041808180C180018141818181C1819D
:102730007047002101804180012181800021C180FA
:10274000018170470021018041808180C180018129
:102750004181818170470000002C0140003401401C
:102760000004004000080040000C004021B1028835
:1027700042F00102028004E002884FF6FE731A4024
:102780000280704731B1B0F8442042F40042A0F812
:10279000442005E0B0F84420C2F30E02A0F8442023
:1027A00070471AB183890B43838102E083898B438D
:1027B000838170478182704741EA0203A0F8483064
:1027C00070471AB183890B43838102E083898B436D
:1027D0008381704701894FF6F8721140018170477B
:1027E0000A46002101894FF68F7319401143018178
:1027F000704730B504460D4629462046FFF7F0FFE6
:10280000208940F00700208130BD2DE9F0410446C9
:102810000D4616461F46602D06D13B460122314625
:102820002046FFF75AFE05E03B460122314620468E
:10283000FFF79DFE29462046FFF7D2FF208940F092
:1028400007002081BDE8F08130B50C4600210189E8
:10285000C9B24FF6FF7505EA032515432543294301
:10286000018130BD2DE9F04105460E4617469846D8
:10287000002443463A4631462846FFF7E5FF2C89B7
:102880004FF6F870044044F007044FF68F70044090
:1028900044F070042C81BDE8F081F0B504460D468B
:1028A00016461F463B46324629462046FFF7CCFFD8
:1028B000208940F480402081F0BD018582827047EC
:1028C0000A46002101884FF68F7319401143018099
:1028D0007047F0B50C4615461E4600210022002325
:1028E0000189028B038C4FF6F877394021434FF66C
:1028F000FC473A4040F201173A434FF6DD773B4040
:102900004FF6FF7707EA06172F433B430181028307
:102910000384F0BD0A460021018B4FF68F731940E6
:102920001143018370470A460021018B48F6FF736B
:1029300019404FF6FF7303EA0223194301837047DE
:102940000A460021818B4FF68F7319401143818312
:1029500070470A460021818B48F6FF7319404FF6F5
:10296000FF7303EA022319438183704721B1028870
:1029700042F08002028004E002884FF67F731A4022
:102980000280704721B1828842F00402828004E014
:1029900082884FF6FB731A408280704721B182888B
:1029A00042F00802828004E082884FF6F7731A40F2
:1029B0008280704721B1828842F00102828004E067
:1029C00082884FF6FE731A40828070470A460021C3
:1029D000018B4FF6F77319401143018370470A4684
:1029E0000021018B4FF2FF7319404FF6FF7303EA8A
:1029F00002231943018370470A460021818B4FF659
:102A0000F77319401143818370470A460021818B77
:102A10004FF2FF7319404FF6FF7303EA0223194385
:102A2000818370470A460021018B4FF6FB731940E2
:102A30001143018370470A460021018B4FF6FF3393
:102A400019404FF6FF7303EA0223194301837047CD
:102A50000A460021818B4FF6FB7319401143818395
:102A600070470A460021818B4FF6FF3319404FF61D
:102A7000FF7303EA02231943818370470A4600214A
:102A8000018B4FF67F7319401143018370470A464B
:102A90000021018BC1F30E014FF6FF7303EA0223FD
:102AA0001943018370470A460021818B4FF67F73DB
:102AB00019401143818370470A460021818BC1F37D
:102AC0000E014FF6FF7303EA022319438183704717
:102AD0000A460021018C4FF6FD7319401143018411
:102AE00070470A460021018C4FF6F77319401143D5
:102AF000018470470A460021018C4FF6DF731940AC
:102B00004FF6FF7303EA02131943018470470A4624
:102B10000021018C4FF67F7319404FF6FF7303EAD3
:102B200002131943018470470A460021018C4FF6B5
:102B3000FF5319404FF6FF7303EA02231943018440
:102B400070470A460021018C4FF2FF7319404FF67F
:102B5000FF7303EA02231943018470470A460021E8
:102B6000018C4DF6FF7319404FF6FF7303EA0233F1
:102B700019430184704730B5002301248C40A3B26F
:102B8000048C9C430484048C02FA01F5ADB22C43FE
:102B9000048430BD30B5002304248C40A3B2048CDF
:102BA0009C430484048C02FA01F5ADB22C430484E6
:102BB00030BD70B5034600200024184618300125AA
:102BC0008D40ACB21D8CA5431D8409B1082909D1E3
:102BD00000EB6100056825F0700505600568154388
:102BE00005600EE00D1FC5F34E052844056825F469
:102BF000E045056005684FF6FF7606EA0226354394
:102C0000056070BD21B1028842F00202028004E03A
:102C100002884FF6FD731A400280704721B1028886
:102C200042F00402028004E002884FF6FB731A406F
:102C30000280704721B1828842F08002828004E0E5
:102C400082884FF67F731A408280704702884FF661
:102C5000F7731A40028002880A4302807047828814
:102C60004FF68F731A40828082880A4382807047B1
:102C700002894FF6F8731A40028102890A430281E1
:102C8000704702894FF67F731A40028102890A4316
:102C900002817047818470478185704781867047C3
:102CA0000187704781877047A0F8401070470288FD
:102CB0004FF6FF431A40028002880A4302807047A1
:102CC0000146888E70470146088F70470146888FFD
:102CD00070470146B1F8400070470146888C704744
:102CE0000146088D704702460020138A0B4201D02E
:102CF000012000E000207047CA430282704730B5CF
:102D00000246002000230024158A05EA0103958964
:102D100005EA010413B10CB1012000E0002030BD30
:102D2000CA4302827047000010B50446BE48844280
:102D300008D101218014FEF729FE0021A014FEF71E
:102D400025FE16E0B948844208D101210014FEF79F
:102D50002AFE00212014FEF726FE0AE0B448844231
:102D600007D10121C013FEF71EFE0021E013FEF77C
:102D70001AFE10BD10B50022028802F441520B88E1
:102D80004C8823438C882343CC8823430C892343DA
:102D90004C8923438C892343CC8923431A430280E3
:102DA000838B4FF2FF74234083830B8A038210BD11
:102DB0002DE9F04F85B005460C464FF0000902277B
:102DC0004FF000084FF0010B0026B246A88B4FF2DF
:102DD00040010840A88302202884B5F81C90A06810
:102DE000022801D100BF38E0A08810B94FF0010BD4
:102DF00001E04FF0020B8D48854200D100E000BF9A
:102E00006846FEF73CFDDDF800A0E088B0F5007FE5
:102E10000AD14FEA1A2000EB80004000A168B0FB05
:102E2000F1F0401D86B20BE04FEA4B10BAFBF0F018
:102E300000EB80004000A168B0FBF1F0401D86B2BD
:102E40000A20B6FBF0F606F00108A6EB0800C0F376
:102E50004F074FF6FF7000EA0828022F01DBFF2F13
:102E600002DD02274FF00008E08840EA08003843FE
:102E70002884A088A18908436188084321880843E1
:102E800040F4006040EA0909A5F81C9005B0BDE8CF
:102E9000F08F0021018041808180C18001814181CA
:102EA0008181C18107210182704700210180418019
:102EB0008180C1800221816000218181704721B120
:102EC000028842F04002028004E002884FF6BF739D
:102ED0001A400280704721B1828B42F48062828363
:102EE00004E0828B4FF6FF331A408283704730B57F
:102EF000002400230C110125A540ABB21AB185882E
:102F00001D43858002E085889D43858030BD1AB1D0
:102F100083880B43838002E083888B4383807047E0
:102F200081817047014688897047A1F57E42FF3A4A
:102F300004D0028842F48072028004E002884FF6D6
:102F4000FF631A400280704721B1828842F0040278
:102F5000828004E082884FF6FB731A4082807047BB
:102F600002884FF2FF731A40028002880A430280EF
:102F70007047018841F480510180704721B1028877
:102F800042F40052028004E002884DF6FF731A40BA
:102F90000280704702460020012901D0108B00E01A
:102FA000908A70470146088A7047B1F5804F04D176
:102FB000028842F48042028004E002884BF6FF73EC
:102FC0001A40028070470246002013890B4201D04C
:102FD000012000E000207047CA4302817047F0B52D
:102FE0000246002000240023002501F00F070126DF
:102FF000BE40B4B20B1101269E40B3B2968806EAD9
:1030000003051689264202D00DB1012000E0002000
:10301000F0BD10B5002201F00F040123A3409AB2C5
:10302000D343038110BD0000003001400038004050
:10303000003C00400948804709480047FEE7FEE79A
:10304000FEE7FEE7FEE7FEE7FEE7FEE7FEE7FEE758
:1030500004480549054A064B704700002D12000838
:1030600031010008081A002008200020081C002058
:10307000081C002010B501210D20FEF76DFC012178
:103080009748FEF782FA10BD08B501210820FEF727
:1030900063FC4FF48040ADF8000010208DF8030071
:1030A00003208DF8020069468E48FEF79FF908BD9F
:1030B00070B504460D4635B10120A04081B2894863
:1030C000FEF73FFA05E00120A04081B28548FEF7F7
:1030D0003AFA70BD10B58448007820B100210E2066
:1030E000FFF7E6FF03E001210E20FFF7E1FF7E4836
:1030F0000078C0437C49087010BD08B50121082044
:10310000FEF72AFC40F20330ADF8000010208DF8E5
:10311000030003208DF8020069467248FEF766F945
:1031200008BD70B505460C46012D06D0022D0FD006
:10313000032D18D0042D2CD120E024B10121002032
:10314000FFF7B6FF03E000210846FFF7B1FF20E0DC
:1031500024B101210846FFF7ABFF03E00021012065
:10316000FFF7A6FF15E024B101210920FFF7A0FF1A
:1031700003E000210920FFF79BFF0AE024B10121B1
:103180000820FFF795FF03E000210820FFF790FFDC
:1031900000BF00BF70BD08B501210820FEF7DCFBB1
:1031A0004FF40050ADF8000010208DF8030003200C
:1031B0008DF8020069464B48FEF718F908BD70B556
:1031C00004460D46002616E000210D20FFF770FF93
:1031D00000210E20FFF76CFFA0B200F01AF90121C8
:1031E0000D20FFF765FF01210E20FFF761FFA0B260
:1031F00000F00FF9761CAE42E6D370BD70B5044600
:103200000D4635B10120A04081B23848FEF799F94A
:1032100005E00120A04081B23448FEF794F970BD6A
:1032200070B504460D4635B10120A04081B230484A
:10323000FEF787F905E00120A04081B22C48FEF797
:1032400082F970BD08B501210C20FEF785FB4FF413
:103250000140ADF8000003208DF8020010208DF829
:10326000030069462148FEF7C1F848F23800ADF87E
:10327000000003208DF8020010208DF8030069463D
:103280001848FEF7B3F808BD70B504460D46062C85
:1032900022D2DFE804F003080D12171C29460F2084
:1032A000FFF706FF19E029460820FFF7A7FF14E003
:1032B00029460520FFF7FCFE0FE029460420FFF712
:1032C000F7FE0AE029460320FFF7F2FE05E0294653
:1032D0000F20FFF793FF00E000BF00BF70BD0000AC
:1032E00000023000000C0140EC000020000801400A
:1032F0000010014010B5FEF7C5F94FF48030FEF71D
:10330000E1F9FEF71EFA044600BF002CFDD00020B4
:10331000FEF75DFA4FF48060FEF762FA0020FEF7D8
:1033200068FA4FF4E0114FF48030FEF733FA0120D1
:10333000FEF73CFA00BF3920FEF7E7F90028FAD083
:103340000220FEF736FA00BFFEF73CFA0828FBD150
:1033500010BD000000200BE01C491D4A02EB0012CA
:10336000916000211A4A02EB0012D160411CC8B2E0
:103370000828F1DB0021174A1170174A11607047C5
:1033800070B504460B4621461A4619E008781578B0
:10339000A84214D10AE011F8015B12F8016BB542A2
:1033A00004D0D01A081A411C1A4602E010780028EE
:1033B000F1D100BF107818B9081B80B270BD491C4C
:1033C00008780028E2D100BFF8E700000080BB4485
:1033D00010010020F0000020F4000020704700BF22
:1033E0000100A0F1010290B2FAD1704700BF0100C4
:1033F000A0F1010290B2FAD1704700B5034602E095
:103400000620FFF7ECFF1800A3F101018BB2F7D102
:1034100000BD10B5044603E04FF47A70FFF7EDFFEE
:103420002000A4F101018CB2F6D110BD10B586B018
:10343000044601210820FEF78FFA01218804FEF7D7
:1034400098FA4FF48060ADF8140018208DF817003A
:1034500003208DF8160005A9FA48FDF7C7FF4FF4C1
:103460000060ADF8140004208DF8170005A9F54898
:10347000FDF7BCFF01940020ADF80800ADF80A008C
:10348000ADF80C00ADF810000C20ADF80E0001A94D
:10349000ED48FEF77AFB27208DF8000001208DF81B
:1034A000010003208DF8020001208DF8030068461A
:1034B000FEF7BFFA012240F22551E348FEF7FDFB7B
:1034C0000121E148FEF790FC0121DF48FEF7E9FB0E
:1034D00006B010BD10B586B0044601210420FEF7E9
:1034E0003BFA01214804FEF744FAD848FEF70AFBEC
:1034F0000420ADF8140003208DF8160018208DF874
:10350000170005A9D248FDF771FF0820ADF8140097
:1035100004208DF8170005A9CD48FDF767FF019439
:103520000020ADF80800ADF80A00ADF80C00ADF8C9
:1035300010000C20ADF80E0001A9C448FEF725FBD1
:1035400026208DF8000001208DF8010002208DF862
:10355000020001208DF803006846FEF76AFA012296
:1035600040F22551B948FEF7A8FB0121B748FEF704
:1035700098FB06B010BD10B588B00446012144F296
:103580000400FEF7E9F9B348FEF7BCFA4FF4007007
:10359000ADF81C0003208DF81E0018208DF81F00C8
:1035A00007A9AB48FDF722FF4FF48060ADF81C007F
:1035B00004208DF81F0007A9A548FDF717FF039405
:1035C0000020ADF81000ADF81200ADF81400ADF811
:1035D00018000C20ADF816000020ADF80400ADF87E
:1035E00006004FF40070ADF808000020ADF80A00A6
:1035F00001A99848FEF73EFB03A99648FEF7C5FAD5
:103600004FF4E060FEF710FA25208DF8000001204D
:103610008DF801008DF802008DF803006846FEF772
:1036200008FA012240F225518A48FEF746FB0121A3
:103630008848FEF736FB08B010BD10B54FF4E130F6
:10364000FFF799FF012240F225518248FEF735FB32
:103650004FF4E130FFF73EFF012240F225517B4855
:10366000FEF72BFB4FF4E130FFF7E0FE012240F2C2
:1036700025517548FEF721FB62B610BD10B5044612
:1036800021467448FEF77AFB10BD70B505460E461C
:10369000002400BF0CE0295D6E48FEF76FFB00BF01
:1036A00080216C48FEF7D8FB0028F9D0601C84B25A
:1036B000B442F0DB70BD10B504460BE014F8011BFA
:1036C0006448FEF75BFB00BF80216248FEF7C4FB45
:1036D0000028F9D020780028F0D110BD10B504469C
:1036E00021465A48FEF74AFB10BD70B505460E4606
:1036F000002400BF0CE0295D5448FEF73FFB00BFEB
:1037000080215248FEF7A8FB0028F9D0601C84B243
:10371000B442F0DB70BD10B504460BE014F8011B99
:103720004A48FEF72BFB00BF80214848FEF794FB78
:103730000028F9D020780028F0D110BD10B504463B
:1037400021464148FEF71AFB10BD70B505460E46EE
:10375000002400BF0CE0295D3B48FEF70FFB00BFD3
:1037600080213948FEF778FB0028F9D0601C84B22C
:10377000B442F0DB70BD10B504460BE014F8011B39
:103780003148FEF7FBFA00BF80212F48FEF764FBAB
:103790000028F9D020780028F0D110BD10B540F2F3
:1037A00025512C48FEF758FB012872D140F22551D3
:1037B0002848FEF791FB2748FEF7E4FAC4B23C2CF8
:1037C00006D10420244908700020244908801CE008
:1037D00021480078C8B9242C03D101201E49087063
:1037E00010E0232C03D102201B4908700AE07B2C37
:1037F00003D103201849087004E03C2C02D10420B6
:10380000154908700020154908801448018800886F
:10381000401C124A1080124844540F480078042873
:1038200022D13E2C20D1002240F225510948FEF73A
:1038300044FA00200A49094A12888854012009499B
:10384000087050E0000C0140004800400044004077
:103850000008014000380140F9000020FA00002073
:1038600090050020F8000020A0480078012811D120
:10387000212C0FD1002240F225519D48FEF71DFA60
:1038800000219C489C4A1288815401209B49087061
:1038900029E030E095480078022810D1212C0ED183
:1038A000002240F225519248FEF707FA0021914884
:1038B000914A1288815401209049087013E08B4886
:1038C000007803280FD17D2C0DD1002240F2255124
:1038D0008748FEF7F2F900208649874A1288885403
:1038E00001208649087084480088B0F5806F02DBAB
:1038F000002081490880002010BD10B540F22551FC
:103900007F48FEF7A9FA012804D140F225517C48EE
:10391000FEF7E2FA002010BD10B540F225517948BB
:10392000FEF79AFA01287AD140F225517548FEF740
:10393000D3FA7448FEF726FAC4B27048007808B18A
:10394000002010BD3C2C06D10420684908700020DE
:103950006D4908801CE065480078C8B9242C03D163
:1039600001206249087010E0232C03D102205F4936
:1039700008700AE07B2C03D103205C49087004E046
:103980003C2C02D104205949087000205E4908806F
:103990005D4801880088401C5B4A108055484454AB
:1039A00052480078042810D13E2C0ED1002240F25B
:1039B00025514F48FEF781F900204E49524A12889E
:1039C000885401204D4908703EE04848007801289D
:1039D00010D1212C0ED1002240F225514448FEF78F
:1039E0006CF900204349484A128888540120434911
:1039F000087029E03D480078022811D1212C0FD110
:103A0000002240F225513A48FEF757F90021394883
:103A10003D4A1288815401203849087014E01BE0A7
:103A20003248007803280FD17D2C0DD1002240F2BE
:103A300025512F48FEF741F900202E49324A1288BD
:103A4000885401202D4908702F480088B0F5806FF8
:103A500002DB00202C490880002072E710B50446E4
:103A60002046FFF728FE10BD70B504460D462946D6
:103A70002046FFF70AFE70BD10B504462046FFF74A
:103A8000FDFD10BD10B504462046FFF744FE10BDF5
:103A900070B504460D4629462046FFF726FE70BD48
:103AA00010B504462046FFF719FE10BD10B50446B8
:103AB0000120124908702046FFF75DFE00200F49E3
:103AC000087010BD10B504462046FFF754FE10BD27
:103AD00070B504460D4629462046FFF736FE70BDF8
:103AE00010B504462046FFF729FE10BDF90000205E
:103AF0000038014090050020FA000020F800002066
:103B00000044004000480040FC00002010B504467E
:103B10000021204601F0A3FF01D2204610BD84F011
:103B20000040FBE700204FF0E0218861C048486179
:103B30000846006940F007000861704700204FF018
:103B4000E0218861BB480068401CBA4908607047A2
:103B50007FB505460C4601210846FDF70AFFADF882
:103B60000850ADF804400020ADF80A00ADF806009A
:103B700001A94FF08040FEF79DFA00214FF08040F0
:103B8000FEF7F4FE012211469007FEF70AFE1C2004
:103B90008DF8000001208DF8010002208DF8020050
:103BA00001208DF803006846FDF743FF01218807D7
:103BB000FEF7DCFD7FBD30B589B005460C4601211E
:103BC0000220FDF7D6FE01210820FDF7C5FE0320E7
:103BD000ADF8200018208DF8230003208DF8220076
:103BE00008A99548FDF702FCADF81850ADF814404F
:103BF0000020ADF81A00ADF8160005A98F48FEF7B1
:103C000059FA6020ADF804000120ADF8060000204C
:103C1000ADF80C004FF4FA70ADF80A0001A987481E
:103C2000FEF714FB08218548FEF7E6FE01A983484C
:103C3000FEF757FB08218148FEF7E7FE01217F4888
:103C4000FEF794FD09B030BD30B589B005460C468D
:103C500001210420FDF78DFE01210820FDF77CFEE7
:103C60004FF44070ADF8200018208DF82300032099
:103C70008DF8220008A97048FDF7B8FBADF8185080
:103C8000ADF814400020ADF81A00ADF8160005A9F3
:103C90006B48FEF70FFA6020ADF804000120ADF884
:103CA00006000020ADF80C004FF4FA70ADF80A00E1
:103CB00001A96348FEF7CAFA08216148FEF79CFE95
:103CC00001A95F48FEF70DFB08215D48FEF79DFE48
:103CD00001215B48FEF74AFD09B030BD10B504462E
:103CE0000021204601F0BBFE01D2204610BD84F029
:103CF0000040FBE72DE9F0410446524901EB041175
:103D0000C868002101F0C4FD41D04E4A02EB041204
:103D1000D1684C4A02EB0412D06801F04BFD074613
:103D2000FFF7DCFF0546474901EB0411488801F025
:103D300003FE8046434800EB04108168404601F0D2
:103D4000BFFE0746FFF7CAFF0646294601F008FEF8
:103D50000FD83C4901EB0411488801F0EDFD3949C9
:103D600001EB041188600020364901EB0411C860A2
:103D70000DE0344A02EB0412D168324A02EB04121D
:103D8000906801F017FD2F4901EB04118860BDE830
:103D9000F08110B501218807FEF7B1FF002845D05A
:103DA00001218807FEF7BCFF27480078082802D1C8
:103DB00000202549087025480078A0B92149224AE9
:103DC000127801EB0211886801F096FD4FF08041F6
:103DD000888501211C480078FFF756FA1A480078B8
:103DE000FFF788FF1AE01749174A127801EB021112
:103DF000886801F081FD40F6C4110C1A142C00DA19
:103E000014244FF080418C8500210F480078FFF783
:103E10003BFA0D480078401C0B4908700B480078AD
:103E200008B9012000E000200849087010BD00001A
:103E300040190100F4000020000C01400004004083
:103E40000008004010010020FF000020FE000020BC
:103E50001CB501210520FDF77FFD01214E48FDF72E
:103E600094FB4FF46050ADF8040010208DF807006B
:103E700003208DF8060001A94848FDF7B7FA4FF472
:103E80008040ADF8000028208DF8030069464348C3
:103E9000FDF7ACFA1CBD10B5FFF7DAFF4FF4805107
:103EA0003E48FDF74EFB4FF400513C48FDF749FBFF
:103EB0004FF400613948FDF744FB10BD2DE9F04196
:103EC00005462F46002600242FE00120A04038425E
:103ED00005D04FF400513148FDF733FB04E04FF4B7
:103EE00000512E48FDF72FFB4FF400612B48FDF7E2
:103EF00028FB0A20FFF781FA4FF400612748FDF7FD
:103F000022FB0A20FFF779FA4FF400612348FDF7FE
:103F100018FB4FF480412148FDF7F9FA18B1012050
:103F2000A0403043C6B2601CC4B2082CCDDB304682
:103F3000BDE8F08110B504464FF480511748FDF7F5
:103F400002FB0120FFF7BAFF20704220FFF7B6FF07
:103F500060702078FFF7B2FFA0702078FFF7AEFF07
:103F6000E0702078FFF7AAFF20712078FFF7A6FF06
:103F700060712078FFF7A2FFA0712078FFF79EFF05
:103F8000E0712078FFF79AFF20724FF480510348C8
:103F9000FDF7D7FA10BD0000000430000008014012
:103FA00000BF0100A0F10100FBD1704770B50546CC
:103FB000002405E0601CC4B2C82C01DD002070BDE7
:103FC0000221FA48FEF7FFFF0028F3D02946F74800
:103FD000FEF7A6FF002405E0601CC4B2C82C01DD7A
:103FE0000020ECE70121F148FEF7EDFF0028F3D0B7
:103FF000EE48FEF797FFC0B2E1E710B500240020BD
:10400000EB4908604FF09000FFF7D0FF0020FFF76A
:10401000CDFF0020FFF7CAFF0020FFF7C7FFFF20FA
:10402000FFF7C4FF44EA0024FF20FFF7BFFF04436B
:104030000120E049C1F8B001204610BD10B504468A
:10404000DD4884810146D948FEF794FE0121D74816
:10405000FEF735FF10BD08B5012141F20400FDF760
:104060007BFCE020ADF8000018208DF80300032051
:104070008DF802006946D148FDF7B8F9E021CF4834
:10408000FDF75FFA0020CC4908804FF48270488029
:10409000002088800220C8800120088140024881D9
:1040A000382088810020C88107200882BF48FEF799
:1040B00061FE0121BD48FEF702FFFF20FFF776FFFA
:1040C00008BD08B501210820FDF746FC4FF48050DB
:1040D000ADF8000010208DF8030003208DF80200D9
:1040E0006946B748FDF782F94FF48051B448FDF7AF
:1040F00028FAFFF7B0FF0820FFF7A0FFFFF77DFFCA
:10410000B049088008BD10B500240020A849086007
:104110004FF00500FFF74AFFFF20FFF747FF044677
:104120000120A449C1F8B001204610BD10B50446D5
:1041300000209F4908604FF00100FFF737FF20463D
:10414000FFF734FF01209B49C1F8B00110BD10B545
:104150000020974908604FF00600FFF727FF012075
:104160009449C1F8B00110BD10B500209049086015
:104170004FF00400FFF71AFF01208E49C1F8B0018B
:1041800010BD2DE9F04106460C461746002088492F
:1041900008604FF00300FFF709FFC4F30740FFF783
:1041A00005FFC4F30720FFF701FFE0B2FFF7FEFEB3
:1041B000002505E0FF20FFF7F9FE7055681C85B269
:1041C000BD42F7DB01207A490860BDE8F08110B5F7
:1041D00000BFFFF798FF10F0010FFAD110BD2DE9D5
:1041E000F04106460C461746FFF7B1FF0020704924
:1041F00008604FF00200FFF7D9FEC4F30740FFF755
:10420000D5FEC4F30720FFF7D1FEE0B2FFF7CEFEE4
:10421000002504E0705DFFF7C9FE681C85B2BD4251
:10422000F8DB012062490860FFF7D1FFBDE8F081AB
:104230002DE9F04107460E461446F0B2C0F58075F0
:10424000AC4200DC254612E02A4631463846FFF7EC
:10425000C6FFAC4200D10BE02F442E44601B84B259
:10426000B4F5807F02DD4FF4807500E02546EBE772
:1042700000BFBDE8F08110B50446FFF768FFFFF707
:10428000A6FF00204A4908604FF02000FFF78EFE8D
:10429000C4F30740FFF78AFEC4F30720FFF786FE4A
:1042A000E0B2FFF783FE01204249C1F8B001FFF7F9
:1042B0008EFF10BD2DE9F04781460F4616464FEAA6
:1042C0001738C7F30B0ACAF58054A64200DC3446FF
:1042D00044E04FEA08314FF480523B48FFF751FF6A
:1042E000002508E00AEB05003749085CFF2800D0EC
:1042F00003E0681C85B2A542F4DB00BFA54216DAD4
:104300004046FFF7B8FF002507E019F8050005EB68
:104310000A012D4A5054681C85B2A542F5DB4FEACC
:1043200008314FF480522848FFF782FF04E022460C
:1043300039464846FFF77CFFA64200D10FE008F15E
:1043400001084FF0000AA1442744301B86B2B6F59D
:10435000805F02DD4FF4805400E03446B9E700BFCF
:10436000BDE8F08710B5FFF7F2FEFFF730FF002041
:104370000F4908604FF0C700FFF718FE01200D49F4
:10438000C1F8B001FFF723FF10BD10B500200849A8
:1043900008604FF0B900FFF709FE01200549C1F898
:1043A000B0010320FFF7FCFD10BD0000003001400C
:1043B000B081214200802142901900200008014074
:1043C000000C0140000100209009002010B50020E1
:1043D000064908604FF0AB00FFF7E8FD01200449F3
:1043E000C1F8B0010320FFF7DBFD10BDB081214211
:1043F000008021420FB41CB5074B06AA7B446946D6
:104400000090059800F0E3FA0020694600F0F2FA07
:104410001CBC5DF814FB0000F505000070B50446F7
:1044200085690068C10601D5302600E02026C00756
:1044300008D070BDD4E9012130469047206A00F1D0
:10444000010020626D1EF5D570BD70B5044685690A
:104450000078C00708D170BDD4E901212020904721
:10446000206A00F1010020626D1EF5D570BD0000CC
:104470002DE9F0410646002410687529314616A53D
:1044800011D0AFF30080002803DAC0F1000013A5BB
:1044900007E031688A0701D511A502E0490704D574
:1044A00010A5012401E0AFF3008000210A2306F1EA
:1044B000240707E0B0FBF3F203FB1200303078541E
:1044C0001046491C0028F5D123462A463046BDE84F
:1044D000F04100F01ABA0000000000002D000000BA
:1044E0002B000000200000002DE9F05F8946044603
:1044F0004FF0000ADFF828B1FB44C0F820A02046A6
:10450000E168884700287CD0252806D0D4E901211D
:104510009047206A401C2062F1E700255F46204654
:10452000E16888472028064608DB312E06D207EBD3
:10453000060010F8200C08B10543F0E7A80701D5E4
:1045400025F00405C4F81CA00027C4F818A02A2EE2
:1045500009D0304600F035FD38B304EB8708303E13
:10456000C8F8186019E059F8041B204604EB8702CC
:104570009161E1688847012F064618D1E06900285B
:1045800020DA25F020051DE0D8F8180000EB8000A7
:1045900006EB40003038C8F818002046E16888472C
:1045A000064600F00EFD0028EED1012F0AD02E2E77
:1045B00008D12046E16888477F1C0646022F45F057
:1045C0002005C4DBA069002803DA404245F001055C
:1045D000A061E80701D025F0100596B1A6F14100D1
:1045E000192802D8203645F400654A46314620464F
:1045F00025604D46FBF7D6FD60B1012807D0ED1DC3
:1046000000E009E025F0070000F1080977E705F16F
:10461000040974E7304679E7206ABDE8F09F00009E
:10462000AE1600000FB400B58DB010A9099000912E
:104630000B904FF0FF300A9000200C900648784411
:104640000690064878446A4607900F9909A800F03A
:10465000EBF90DB05DF814FB070400001F04000027
:104660002DE9FF5F1D464FF0FF3B91464FF00008DC
:104670005F46D5E90146A96901987F1C8847296AE8
:10468000824688470028F6D11AF101000CD0002E8E
:1046900024F4C06419DD600614D5BAF12B0F09D0DB
:1046A000BAF12D0F0ED103E0584604B0BDE8F09FDB
:1046B00044F48064A96901987F1C8847761E82466D
:1046C000002E02DDBAF1300F03D0B9F1000F26D071
:1046D00032E0A969761E01987F1C44F40074884773
:1046E000002E824605DDBAF1780F06D0BAF1580FD8
:1046F00003D0B9F1000F10D01EE0B9F1000F02D0C5
:10470000B9F1100F18D1A969761E01987F1C24F405
:10471000007488478246102002E0082000E00A204A
:10472000814609E0A96908FB0908761E01987F1CEB
:1047300044F4007488478246002E05DD4946504601
:1047400000F05DF90028EDDAE96901988847A005D5
:1047500002D46FF00100A8E7E00727D1600614D566
:10476000600502D5C8F1000000E04046296801F16B
:1047700004022A600968220501D5087016E02207A4
:1047800001D5088012E0086010E0286800F10401FB
:1047900029600068210502D580F8008006E0210725
:1047A00002D5A0F8008001E0C0F8008038467CE720
:1047B00040EA0103024630B59B0710D14FF00134A7
:1047C00000E008C208C91D1B9D4315EAC41FF8D0AC
:1047D00013F0FF0102F8011B0DD01B0AF8E711F8D6
:1047E000013B002B02F8013B05D011F8013B002BE7
:1047F00002F8013BF3D130BD10B5431C02E010F8C4
:10480000011B71B18107FAD14FF0013202C88C1A35
:104810008C4314EAC211F9D0C01A0A0603D0C01E94
:1048200010BDC01A10BD0A0401D0801E10BD0902BF
:10483000FCD0401E10BD032A40F2308010F0030C63
:1048400000F0158011F8013BBCF1020F624498BFE3
:1048500011F801CB00F8013B38BF11F8013BA2F180
:10486000040298BF00F801CB38BF00F8013B11F0FB
:10487000030300F00981083AC0F0088051F8043BB6
:10488000083A51F804CBA0E80810F5E7121D5CBF08
:1048900051F8043B40F8043BAFF30080D20724BF3B
:1048A00011F8013B11F801CB48BF11F8012B24BFCF
:1048B00000F8013B00F801CB48BF00F8012B70471E
:1048C0004FF000020429C0F0128010F0030C00F039
:1048D0000F81CCF1040CBCF1020F18BF00F8012BC2
:1048E000A8BF20F8022BA1EB0C0100F001B95FEA90
:1048F000C17C24BF00F8012B00F8012B48BF00F851
:10490000012B70477047704770472DE9F0470D46FF
:1049100099469246044600F124080168880604D5A9
:10492000E06921F01001216000E00120A84202DDD1
:10493000A0EB050700E00027A16907EB050202EBE9
:104940000900A1EB0000A0612078C00602D4204637
:10495000FFF764FD002608E0D4E901211AF80600FB
:104960009047206A401C761C20624E45F4DB20787C
:10497000C0060AD52046FFF751FD06E0D4E9012123
:1049800030209047206A401C2062381EA7F10107A2
:10499000F4DC07E0D4E9012118F805009047206A0B
:1049A000401C2062281EA5F10105F3DC2046FFF71C
:1049B0004CFD2078000602D50220BDE8F0870120DA
:1049C000FBE7000001694A1C02610878704700B5E6
:1049D0008FB0CDE901310021059105497944CDE938
:1049E000031011466846FFF77FFD0FB000BD0000C1
:1049F000E5FFFFFF0A6802F8010B0A6070473A28DA
:104A000000D2303820F02002412A01D3A2F1370031
:104A1000884201D34FF0FF30704700000268114414
:104A20001378016018467047D16005497944516197
:104A300004497944116200211161114600F086B8E1
:104A4000EDFFFFFF05010000426842B1016811F867
:104A5000013B23B1521EC0E90012184670470121E4
:104A6000C160881E704742685AB1C368016843B983
:104A700083688B4205D0491E521CC0E900120020F9
:104A800070474FF0FF30704710B5203AC0F00B80F0
:104A9000B1E81850203AA0E81850B1E81850A0E842
:104AA0001850BFF4F5AF5FEA027C24BFB1E818509C
:104AB000A0E8185044BF18C918C0BDE810405FEA0C
:104AC000827C24BF51F8043B40F8043B08BF704788
:104AD000D20728BF31F8023B48BF11F8012B28BF8D
:104AE00020F8023B48BF00F8012B70474FF000024E
:104AF00000B5134694469646203922BFA0E80C50D4
:104B0000A0E80C50B1F12001BFF4F7AF090728BFAE
:104B1000A0E80C5048BF0CC05DF804EB890028BF2A
:104B200040F8042B08BF704748BF20F8022B11F053
:104B3000804F18BF00F8012B704710B5044600F0F5
:104B4000E3F90068005D00F0010010BD2DE9F34FAE
:104B50004FF0000A0C4656468DB001200C9001F132
:104B60000C000B9062690B980121904705002DD035
:104B7000252D2CD0216A8847C0B162690B9801218C
:104B80009047216A88470028F7D16269411E0B9837
:104B9000904700E0761CA1690D988847216A8847F4
:104BA0000028F7D1E1690D988847DBE7A1690D98E6
:104BB0008847A842074601D1761CD3E7E1690D98E2
:104BC00088477F1C02D1BAF1000F6FD06AE1626999
:104BD0000B9800273D46394690472A2804D1626940
:104BE0000B98012190470125DFF8CC8262690B9870
:104BF00001219047A0F130010A290AD24745E5DC9E
:104C000007EB870100EB4107303FDFD445F010058B
:104C1000ECE7E90601D46FF000476C280AD04C2875
:104C200014D0682815D06A280DD074281CD07A2892
:104C30001AD01DE062690B98012190476C2802D0C0
:104C400045F0040514E045F002050DE045F02005AF
:104C50000AE062690B9801219047682802D045F06C
:104C6000080505E045F4006562690B98012190474D
:104C7000C4E9015765283DD019DC582879D00CDCEF
:104C8000452837D004DC252826D041289ED131E0A4
:104C900046282FD0472899D12CE05B287FD0612867
:104CA00028D063287BD0642890D159E0F5E06F28A4
:104CB00047D008DC66281DD067281BD0692821D082
:104CC0006E2816D127E0702844D0732867D0752845
:104CD00046D078280DD14CE0A1690D988847252849
:104CE00005463FF469AFE1690D9888476D1C3FF4B4
:104CF0006AAFD7E00D9923466A466FF00100AFF323
:104D00000080C4E045F0400023464FF000026060A0
:104D1000A80735D43DE0206800F104012160006857
:104D2000290501D506701DE7290701D5068019E779
:104D3000A90704D54FEAE671C0E9006112E70660F1
:104D400010E745F0400023464FF008026060A807D6
:104D500016D41EE040F60E0125EA0100606016E060
:104D600045F0400023464FF00A026060A80707D4D0
:104D70000FE045F040006060A80708D523461022E8
:104D80000D996FF00100AFF3008080E007E0102282
:104D900023460D996FF00100FFF762FC77E04FF0BA
:104DA000000963284F46C8464B46CB4602D05B28D5
:104DB00006D038E0E80601D40120A060012732E0E7
:104DC0006269D4F80CB00B98012190475E2807D196
:104DD0004FF0010949466269D4F80CB00B9890472E
:104DE000216939B900210B4603AA42F82130491C38
:104DF0000829FADBD8B3216949B308F101086269CF
:104E00000B98012190475D28F4D1B9F1000F09D02A
:104E1000002003A951F82020D24341F82020401C53
:104E20000828F7DB03AB2069002820794FEA40709F
:104E30001ED05B462246CDF80080CDE901970D9942
:104E400000286FF0010020DAAFF300801FE0C117E7
:104E500000EBD16203A9531122F01F0201EB830181
:104E6000821A0B680120904003430B60C7E719E0EA
:104E70000D99224600286FF00100009702DAAFF387
:104E8000008004E0AFF3008001E0AFF30080002871
:104E90000ADA401C06D10C9820B14FF0FF300FB059
:104EA000BDE8F08F5046FAE7E90701D10AF1010A9F
:104EB000064400200C9055E6CCCCCC0C754600F096
:104EC00031F8AE4605006946534620F00700854696
:104ED00018B020B5FEF7BCF8BDE820404FF0000642
:104EE0004FF000074FF000084FF0000B21F00701D2
:104EF000AC46ACE8C009ACE8C009ACE8C009ACE815
:104F0000C0098D467047000010B500F00FF8001D75
:104F100010BD00BFBD0000000446AFF30080204676
:104F2000FBF75BF900487047A41900200048704760
:104F3000C41900204FF0013C50F8042B51F8043BF9
:104F40009A4221D1A2EB0C03934313EACC1317D15D
:104F500050F8042B51F8043B9A4215D1A2EB0C03F4
:104F6000934313EACC130BD150F8042B51F8043BB4
:104F70009A4209D1A2EB0C03934313EACC13DBD082
:104F80004FF00000704700BFD01A01BAB1FA81F1AA
:104F900001F0180122FA01F0CB40C1F12001DBB28F
:104FA000C0B2C01A2CFA01F3D11A914311EAC3110D
:104FB000E6D1704701491820ABBEFEE7260002008B
:104FC000704730380A2801D201207047002070470E
:104FD00010B500290AD00878002807D00548784481
:104FE000FFF7A8FF002801D0002010BD0248784438
:104FF00010BD0000EE0E0000E60E000021F00042A1
:10500000A2F16052B2F5801F01F0004328BFD2F137
:105010007F6C0BD95FEA001C43EAC20242EB50707E
:1050200018BF704728BF20F001007047B2F5801FFD
:10503000BCBF184670474FEA410C1CF5001F02D256
:10504000084600F007BD70B500F04AFA000000897C
:10505000FFF7F6BF4FF00040A0F58000704700005A
:1050600010B591EA030F48BF83F0004300F194822A
:10507000841A71EB030C05D2121943EB0C03001BCD
:1050800061EB0C01DFF824E14FEA1154A4EB135C4F
:105090001EEA430F18BF9EEA445F73D023EA0E0353
:1050A000DCF1200E21EA045143F4801332D322FABA
:1050B0000CFE10EB0E0023FA0CFE41EB0E01CCF1BE
:1050C000200E03FA0EFE10EB0E0051F10001B1F5B7
:1050D000801FCCF1200E32D201EB045112FA0EF2F5
:1050E000BDE8104058BF7047401C38BF5FEA42021D
:1050F00018BF7047002814BF20F0010041F10001E3
:105100004FEA410313F5001F38BF7047A1F1C041BA
:1051100000F034BA012A43EB0302ACF1200CDCF1BD
:105120001F0E32BF4FF0000E23FA0CF310EB0300FA
:1051300041EB0451B4EB115FD0D0A1EB045101F568
:10514000801149085FEA300001EB04510ED350F1A1
:10515000000038BF12FA0EFE08D1BDE81040C9E7C2
:10516000401C38BF5FEA4202CAD1C3E7BDE8104025
:105170004FEA410313F5001F38BF7047A1F1C0414A
:1051800000F0FCB99EEA445F08D011EA5E0FBDE86A
:10519000104004BF01F0004100207047BDE81040FE
:1051A00070B500F09DF900BF64FBBE3E0000E0FF5B
:1051B0002DE9C04130B4DFF8A0C23CEA111418BF99
:1051C0003CEA131400F0EC8081EA03051CEA111498
:1051D00044EAD57418BF1CEA131500F0C780A4EB8D
:1051E00005044FF0004545EAC12145EAC32341EAE1
:1051F000505143EA525304F17F74994204F500344C
:105200004FEAC0204FEAC22208BF904200F09C80C3
:105210004FEA13650FF24016765D4FEA134506FB21
:1052200005F7C7F1807706FB07F74FEAD737A7FBEB
:1052300003687642C8F58038A7FB06CE38BFA8F1D0
:10524000010807FB08E64FF0000EA6FB028CE6FB08
:1052500003CEDCF1000CCEF1004E38BFAEF1010EF2
:10526000A6FB0C584FF000074FF00005E6FB0E8739
:10527000A1FB08C6A0FB07CE16EB0E0645F1000504
:10528000E1FB076515F1E04E7EBFA4F580345FEACF
:1052900046066D4116F1800745F100054FEA1727D4
:1052A0004FEA066647EA0567A6F1DE46B6F1805F7B
:1052B0004FEA15251FD9384624F0010C05EBC471BF
:1052C000BCF1FE6F01EB0C1102D8F0BCBDE800810F
:1052D00024425CBF01F5801E9EEAC47F02D4F0BC6C
:1052E000BDE80081244238D4F0BCA1F1C041BDE842
:1052F000004100F043B94FEAD22242EA43524FEA5A
:10530000D323A7FB02864FEAD02040EA415007FB97
:1053100003661EEA0E0F4FEAD12105FB026658BF55
:10532000A6EB0056B6EB00564FEA520E4EEAC37E8D
:1053300018EB0E0E56EB530EBDD518EB02085E416E
:105340007F1C55F10005B6E74FF480154FF00007BC
:105350004FF000064FF00008ADE7F0BC4FF0000042
:1053600001F1C04101F00041BDE8008111EA0C1FCC
:105370000CEA131500D00CE013EA0C1F00F0258096
:105380004FF00000F0BC81EA030101F00041BDE8EC
:105390000081F0BCBDE8004181EA030100F0EEB8F5
:1053A000F0BCBDE8004170B500F09AF8097EFC3E03
:1053B00000F007B881EA03014FF0000001F000415E
:1053C000704781EA030100F0D9B8F0BCBDE80041A4
:1053D0004FF0000021497047FFFDFBF9F7F5F4F2AB
:1053E000F0EEEDEBE9E8E6E4E3E1E0DEDDDBDAD880
:1053F000D7D5D4D3D1D0CFCDCCCBCAC8C7C6C5C4DE
:10540000C2C1C0BFBEBDBCBBBAB9B8B7B6B5B4B3F4
:10541000B2B1B0AFAEADACABAAA9A8A8A7A6A5A4DF
:10542000A3A3A2A1A09F9F9E9D9C9C9B9A999998A3
:105430009797969595949393929191908F8F8E8E46
:105440008D8C8C8B8B8A89898888878786858584D3
:1054500084838382828181800000FF070000F87FBF
:105460004FEA1153A3F58063D3F11E03A8BFD3F114
:10547000200C08DB4FF0004242EAC12252EA5052AF
:1054800032FA03F0704709420BD4102BC4BF00203E
:10549000704703F5787CBCF1FF3F05D04FF0FF303B
:1054A00070474FF00000704770B500F019F800BF6A
:1054B0004992248000207047F0E7B0FA80F310FA98
:1054C00003F10AD0C3F11D0303F580634FEA415095
:1054D0004FEA035202EBD12170474FF000007047B2
:1054E0000EF1020E2EF0030E5EF8046B364205D468
:1054F000012A43EB030515F5001F12D8012841EBE3
:10550000010C1CF5001F0CD80ED14FEAD17C15F50B
:10551000001F0CEB4C0C0CF1020C08BF4CEBD37CC5
:1055200004E04FF0080C01E04FEAD37C0CEB4C0593
:1055300026FA05F606F00706B6F1040C06D20EEBC5
:10554000860CBDE870404CF0010C6047DFE80CF0C1
:10555000090B02024FF000414FF00000A1F50021BD
:1055600070BD19461046012851EB010418BFD4F54F
:10557000001484BF002001F0004170BD0808A0F5B0
:1055800000114FEA3101704710B591EA030F48BF8F
:1055900083F000433FF56CAD841A71EB030C07D226
:1055A00012198CF0004C43EB0C03001B61EB0C0157
:1055B000DFF8A4E14FEA1154A4EB135C1EEA430F99
:1055C00018BF9EEA445F00F0B08023EA6E035242A7
:1055D00021EA0451C3EB6E0338BF5B1EDCF1200EE1
:1055E00025D322FA0CFE10EB0E0043FA0CFE41EB21
:1055F0000E01CCF1200E03FA0EFE10EB0E0051F15D
:105600000001CCF1200E29D412FA0EF201EB045164
:10561000BDE8104058BF7047401C1CBFB2F1004F9E
:10562000704700280CBF491C20F00100704712EBA6
:10563000020E43EB030218BF4FF0010E4EEA420286
:10564000ACF1200CDCF11E0E54D943FA0CFE10EB29
:105650000E0051F1FF31CCF11E0ED5D50EF1010E29
:1056600012FA0EFE404141EB010101EB445C5FEA9E
:105670005C5C10D910EBDE7001EB045138BFBEF159
:10568000004FBDE8104018BF704700280CBF491CF0
:1056900020F00100704730D24FEAD42C11F50011F0
:1056A00024F400641BD0B1FA81F20B3AA41AA41EB0
:1056B000D2F12003914030FA03F31943904001EBFB
:1056C000CC71002C01EB0451BDE81040A8BF70471D
:1056D00001F1C0414FF0000001F000417047B0FA05
:1056E00080F310FA03F100D110BDE41A173C48050D
:1056F000C90AE4E701EB045110BD491001EB045164
:10570000BDE810404FEA300002E04FF00001704762
:105710004A0008BF0042F8D0B2F5001F28BF70470A
:1057200001F000414FF0000070479EEA445F07D04F
:1057300011EA5E0FBDE8104004BF00210020704751
:10574000BDE8104070B5FFF7CBFE00BF40DFF63E6E
:1057500083F00041104670470000E0FF43004FEA2D
:10576000D30C4FEA3C0C43401FBF40070CF1605183
:1057700013F0FE4F70471CF0006F03D100200CF0B7
:10578000004170470CF0004343EA507010B540EA06
:10579000CC0000F019F900BF000000924FEA0001B0
:1057A000FFF7ECBE4FF000414FF00000A1F50021E3
:1057B0007047000090EA010F48BF81F0004100F1FE
:1057C0008681421A3CBF801A89184FEAD0524FF0A6
:1057D0007F4C1CEA410FA2EBD15318BF9CEA026F29
:1057E00000F03B804FF0004C4CEA00204CEA0121D5
:1057F00021FA03FC10EB0C0C1ED202F1FF325FEA1F
:105800001C2040EBC25038BF70471CF07F0F4FEA9E
:10581000400C18BFBCF17F4F38BF7047C3F1200365
:10582000994008BF20F00100BCF17F4F38BF70479E
:10583000A0F1C04000F00EB94FEA3C00000A40EB76
:10584000C25028BF1CF0FF0F4FEA400CE6D018BF33
:10585000BCF17F4F38BF7047EAE79CEA026F05D082
:1058600010EA5C0F08BF00F00040704710B500F070
:10587000ABF800BF64FBBE3E401058BFC0F14040D3
:10588000491058BFC1F140418142EFF30080704799
:1058900050EA010C00F113801CF5000F58BFBCF555
:1058A000000F01D48842704707D710F5000F58BF8A
:1058B00011F5000F15D488427047894270471CF5D6
:1058C000000F04D5BCF5000FF7D5814270474FF0AB
:1058D000807C1CEB400F38BF1CEB410F01D2814292
:1058E000704710B500F070F8922449004FF0005056
:1058F0004FF08051FFF7C0BFC10DD1F19E0206DB12
:105900004FEA002343F0004323FA02F070470042BD
:1059100007D54FEA4001B1F1FE4F02D24FF000002F
:10592000704710B500F050F849922480002070476D
:105930006FEA200070470000B0FA80F310FA03F21B
:10594000C3F19D030AD0D90501EB1220530638BFDD
:10595000704700F1010008BF20F00100704700000F
:1059600050EA010C00F113801CF5000F58BFBCF584
:10597000000F01D48842704707D710F5000F58BFB9
:1059800011F5000F15D488427047894270471CF505
:10599000000F04D5BCF5000FF7D5814270474FF0DA
:1059A000807C1CEB400F38BF1CEB410F01D28142C1
:1059B000704710B500F008F8922449004FF00050ED
:1059C0004FF08051FFF758BF0EF1020E2EF0030E7C
:1059D0005EF8044B244204D44FEA4102B2F17F4FF7
:1059E00011D84FEA4003B3F17F4F0CD80ED14FEAE4
:1059F000D07CB2F17F4F0CEB4C0C0CF1020C08BFC9
:105A00004CEBD17C04E04FF0080C01E04FEAD17C74
:105A10000CEB4C0324FA03F404F00704B4F1040C77
:105A200006D20EEB840CBDE810404CF0010C604730
:105A3000DFE80CF0070802024FF00040A0F58000FC
:105A400010BD0846420018BFD2F1807288BF00F036
:105A5000004010BDFF2141EAD050C005704751EA17
:105A6000000C00F113801CF5000F58BFBCF5000FAF
:105A700001D48142704707D711F5000F58BF10F5C8
:105A8000000F15D481427047894270471CF5000F02
:105A900004D5BCF5000FF7D5884270474FF0807CE5
:105AA0001CEB410F38BF1CEB400F01D288427047FE
:105AB00080EA010081EA000180EA0100FFF779BF76
:105AC00090EA010F48BF81F000413FF57AAE421ADB
:105AD00004D882F00042A0EB020011444FEAD052F9
