:0B3FCD00EF1FAC0670011E4C70F622C6
:043E8400AA06AB07D8
:103E8800EB1BAE0270011A4E60117D03AF051DEFEA
:0B3E980060EE7F017E00123FCD80F144
:013EA30022FC
:103E19009004D5EEF0A3EFF09004D574FFF5F012FD
:103E290007A145F0600D9004D5E0FEA3E0FF123E26
:043E39008480E5227A
:10398000E4FBEB75F00EA42404F582E43400F58327
:1039900012086C44BB8000EB75F00EA42400F58285
:1039A000E43400F58312086C44BB8000EB75F00E24
:1039B000A42408F582E43400F58312086C000000AA
:0F39C000000BEBB408BCE490045CF0A3F0A3F0A0
:0139CF0022D5
:0B2959009004D5EBF0A3EAF0A3E9F036
:102964009004DBEBF0A3EAF0A3E9F09004D8E0F9DB
:10297400A3E0FAA3E09004DEC9F0A3EAF0A3E9F02F
:102984009004DBE0FBA3E0FAA3E0F91206C9FF70B0
:1029940003022A6E9004DEE0FBA3E0FAA3E0F9123E
:1029A40006C96F6003022A619004DEE0FBA3E0FA2B
:1029B400A3E0F91206C960789004DEA3E475F0017F
:1029C4001207A1A9F0FA1206C9FF9004DBE0FBA3E9
:1029D400E475F0011207A1A9F0FA1206C96F60C8E4
:1029E4009004D8A3E0FAA3E0AE02FF9004DEA3E0D3
:1029F400FAA3E0C39FFFEA9EFE9004DBE0FBA3E0A2
:102A0400FAA3E0C39FF9EA9EFAE92401F9E43AFA49
:102A14009004DBEBF0A3EAF0A3E9F09004D8E0F92A
:102A2400A3E0FAA3E09004DEC9F0A3EAF0A3E9F07E
:102A34009004DEE0FBA3E0FAA3E0F91206C9600308
:102A44000229849004D5A3E0FAA3E0AE02FF900427
:102A5400DBA3E0FAA3E0C39FFFEA9EFE229004DC1E
:0D2A6400E475F00112078B022984E4FEFFE7
:012A71002242
:103EA400E4F593759430F591F592F59575960EF5C4
:103EB400B175B290F5B3F5B4F5C975CA0D02000E2B
:0D000E00D2C8D2B4D284D2CBD285D2CA22BD
:103BAD00EF14601614601914601C14601F14602249
:103BBD0024057023ED24FF92C822ED24FF92B42238
:103BCD00ED24FF928422ED24FF92CB22ED24FF926F
:083BDD008522ED24FF92CA22AB
:101117003C5053325F52454430313A2330303550DA
:10112700323430305432303030215E244453543A14
:1011370035213E003C5053325F52454430323A230A
:1011470030303550303630305432303030215E2434
:101157004453543A35213E003C5053325F52454484
:1011670030333A2330303450303630305432303028
:1011770030215E244453543A34213E003C505332CC
:101187005F52454430343A233030345032343030B3
:101197005432303030215E244453543A34213E00D7
:1011A7003C5053325F52454430353A233030325049
:1011B700323430305432303030215E244453543A84
:1011C70032213E003C5053325F52454430363A2379
:1011D70030303350323430305432303030215E24A6
:1011E7004453543A33213E003C5053325F524544F6
:1011F70030373A2330303250303630305432303096
:1012070030215E244453543A32213E003C5053323D
:101217005F52454430383A2330303350303630301F
:101227005432303030215E244453543A33213E0047
:101237003C5053325F52454430393A24213E003CFA
:101247005053325F52454431303A24445744213E8B
:10125700003C5053325F52454431313A24445741A0
:10126700213E003C5053325F52454431323A2444C8
:101277004A52213E003C5053325F52454431333A83
:101287002330303150303630305432303030215EF8
:10129700244453543A31213E003C5053325F524567
:1012A7004431343A233030305030363030543230D5
:1012B7003030215E244453543A30213E003C505391
:1012C700325F52454431353A233030315032343071
:1012D700305432303030215E244453543A31213E69
:1012E700003C5053325F52454431363A2330303058
:1012F70050323430305432303030215E244453542D
:101307003A30213E003C5053325F47524E30313A1B
:101317002330303550323430305432303030215E63
:10132700244453543A35213E003C5053325F4752D0
:101337004E30323A23303035503036303054323038
:101347003030215E244453543A35213E003C5053FB
:10135700325F47524E30333A2330303450303630D4
:10136700305432303030215E244453543A34213ED5
:10137700003C5053325F47524E30343A23303034BA
:1013870050323430305432303030215E244453549C
:101397003A34213E003C5053325F47524E30353A83
:1013A7002330303250323430305432303030215ED6
:1013B700244453543A32213E003C5053325F475243
:1013C7004E30363A233030335032343030543230A6
:1013D7003030215E244453543A33213E003C50536D
:1013E700325F47524E30373A233030325030363042
:1013F700305432303030215E244453543A32213E47
:10140700003C5053325F47524E30383A2330303326
:1014170050303630305432303030215E244453540B
:101427003A33213E003C5053325F47524E30393AEF
:1014370024213E003C5053325F47524E31303A240C
:10144700213E003C5053325F47524E31313A2421FE
:101457003E003C5053325F47524E31323A24444AA1
:1014670052213E003C5053325F47524E31333A23AC
:1014770030303150303630305432303030215E2405
:101487004453543A31213E003C5053325F47524E49
:1014970031343A23303030503036303054323030F7
:1014A70030215E244453543A30213E003C5053329D
:1014B7005F47524E31353A23303031503234303075
:1014C7005432303030215E244453543A31213E00A7
:1014D7003C5053325F47524E31363A23303030500A
:1014E700323430305432303030215E244453543A51
:1014F70030213E0075617274315F696E6974204FE7
:101507004B210075617274325F696E6974204F4BAD
:1015170021005E0024002300244453542100233279
:101527003535504453542100244453543A0024443D
:1015370053543A25642100232530336450445354CF
:101547002100245253542100244347503A00244396
:1015570047503A25642D25642100244445473A0025
:10156700244445473A25642D2564210024444753E4
:101577003A00244447533A25642100244447543A07
:1015870000244447543A25642D25642C2564210002
:10159700244443523A00244443523A25642C256498
:1015A7002100244457412100244457442100244367
:1015B70041525F4641525741524421002443415210
:1015C7005F4241434B574152442100244341525FFC
:1015D7004C4546542100244341525F5249474854E1
:1015E700210024444A522100233235355031353009
:1015F70030543230303021002447455441210041D6
:10160700414100450041000D0A00244572617365A0
:10161700202564204F4B2100646F5F67726F7570E0
:101627005F6F6E6365202564204F4B0D0A002447CA
:10163700726F757020446F206F6B210D0A00414453
:10164700433D25640A00FF1117FF113BFF115FFFA0
:101657001183FF11A7FF11CBFF11EFFF1213FF1229
:1016670037FF1246FF1258FF126AFF127CFF12A0C3
:10167700FF12C4FF12E8FF130CFF1330FF1354FFD0
:101687001378FF139CFF13C0FF13E4FF1408FF1424
:101697002CFF143BFF144AFF1459FF146BFF148FE0
:0616A700FF14B3FF14D78D
:10367C004905270000000000000000004405300050
:10368C0000000044053400000000410538014105EC
:10369C0043014405090000000044050D0000000032
:1036AC0042051100004205130000420515000042BE
:1036BC000517FFFF41051D0041051E0041051F00B8
:0B36CC00410520004405210000000023
:1037F000123EA47F07123F0A123980124005123F81
:1038000034124010120040123F7012400C12001E81
:103810007BFF7A1479FB123C897BFF7A15790A12B7
:103820003E3D123EF5123EDD7FE87E0312377812F0
:103830003FEC123A62EF64167003EE64EF6004C26C
:10384000C980EF123AA9123BE5123B70123C1C12E0
:10385000318E123A1B122E3012392F122A7280E644
:103AA900C2C9C2A07F647E00123E19D2C9D2A07FCA
:103AB900647E00123E19C2C9C2A07F647E00123E14
:103AC90019D2C9D2A07F647E00123E19C2C9C2A010
:103AD9007F647E00123E19D2C9D2A07F647E001293
:033AE9003E192261
:103BE500123FA2900509E0F8A3E0F9A3E0FAA3E0EB
:103BF500FBC3EF9BFFEE9AFEED99FDEC98FCE47B91
:103C0500F47A01F9F8D312080F500B123FA2900570
:063C150009120860B2A0D4
:013C1B002286
:103B7000123FA290050DE0F8A3E0F9A3E0FAA3E05C
:103B8000FBC3EF9BFFEE9AFEED99FDEC98FCE47B06
:103B900014FAF9F8D312080F5012123FA290050D33
:0C3BA0001208607B017A0579271232516F
:013BAC0022F6
:0D3DC900E0FEA3E0FF9004C8E0FCA3E0FDD5
:103DD600D3EF9DEC6480F8EE6480984007EF9DFF7A
:0C3DE600EE9CFE22C3ED9FFFEC9EFE222F
:10318E00900528E06473600302325090052FE0FF33
:10319E00C3747F9FFFE49400FEEF7803C333CE33F6
:1031AE00CED8F9FF9004C8EEF0A3EFF090052DE015
:1031BE002481FFE434FFFEEF7803C333CE33CED841
:1031CE00F9FBAA06900511E0FEA3E0FFAD03AC02E9
:1031DE00123DD6C3EF9414EE64809480500FA31268
:1031EE003DC9C3EF9414EE64809480405590051150
:1031FE00E0FEA3E0FFAD03AC02123DD6D3EF942860
:10320E00EE64809480400AAF03900511EAF0A3EFBC
:10321E00F0900513123DC9D3EF9428EE648094808C
:10322E00400F9004C8E0FFA3E0900513CFF0A3EF8A
:10323E00F0900511E0FEA3E0FFA3E0FCA3E0FD1279
:02324E002B6EE5
:01325000225B
:103C1C0090052AE0FF900515E0B5070C90052BE008
:103C2C00FF900516E06F601E7B017A05792A9005DE
:103C3C0028E0FD12225990052AE0900515F0900518
:063C4C002BE0900516F0CC
:013C5200224F
:052259009004C8EDF047
:10225E00E49004CAF09000011206E2FD7C00120622
:10226E00C9FEE42DFFEC3EFE900519F0A3EFF090B1
:10227E000517E0FCA3E0FD6F7002EC6E7003022503
:10228E00A1A3E0FEA3E0FFA3EEF0A3EFF0EE5CFE51
:10229E00EF5DFF900519EEF0A3EFF0E49004C9F0A6
:1022AE009004C9E0FFC39410400302258774017E99
:1022BE0000A807088005C333CE33CED8F9FF9005AA
:1022CE0019E05EFCA3E05F4C600302257E900517CB
:1022DE00E05EFEA3E05F4E700302242B7E037FECD4
:1022EE007D007B017A0079701209F89004C8E064D1
:1022FE0073702EA3E075F003A4244DF582E434161A
:10230E00F583E493FB740193FA740293F9123F1F61
:10231E009004C9E075F003A4244DF582E4341680D0
:10232E00379004C8E06441600302257EA3E075F097
:10233E0003A4247DF582E43416F583E493FB740143
:10234E0093FA740293F9123F1F9004C9E075F003DB
:10235E00A4247DF582E43416F583E493FB74019393
:10236E00FA740293F978707C007D011206A3900432
:10237E00D874FFF0A37415F0A37419F07B017A00E2
:10238E0079701229599004CAEFF0600CE0246FF5B1
:10239E0082E43400F583E4F09004D874FFF0A37463
:1023AE0015F0A3741BF07B017A007970122959EF96
:1023BE004E601290045C7401F090045DF0785F7CC6
:1023CE0004FDFB802E9004D874FFF0A37415F0A3C7
:1023DE00741DF07B017A007970122959EF4E602935
:1023EE0090045C7401F090045D04F0785F7C047DD1
:1023FE00017B017A00797B1209DB78707C007D010C
:10240E007B017A04795F1209DB7B017A0079701205
:10241E003C8974FF900517F0A3F002257E7E037FA2
:10242E00EC7D007B017A0079701209F89004C8E007
:10243E006473702EA3E075F003A4244DF582E4348A
:10244E0016F583E493FB740193FA740293F9123F29
:10245E001F9004C9E075F003A4244DF582E43416F0
:10246E0080379004C8E06441600302257EA3E075C6
:10247E00F003A4247DF582E43416F583E493FB7413
:10248E000193FA740293F9123F1F9004C9E075F09C
:10249E0003A4247DF582E43416F583E493FB7401E2
:1024AE0093FA740293F978707C007D011206A39062
:1024BE0004D874FFF0A37415F0A37419F07B017A9D
:1024CE000079701229599004CAEFF0700302257E2C
:1024DE00E07E002470F9EE3400FA7B019004D8748B
:1024EE00FFF0A37415F0A3741BF0122959EF4E6080
:1024FE000B90045C7401F090045D802E9004CAE091
:10250E007E002470F9EE3400FA7B019004D874FF3B
:10251E00F0A37415F0A3741DF0122959EF4E604705
:10252E0090045C7401F090045D04F09004CAE07EA7
:10253E00002470F9EE3400FA7B01785F7C047D0193
:10254E001209DB7B017A04795F123F1F745E2FF54F
:10255E008274043EF583E4F078707C007D017B018B
:10256E007A04795F1209DB7B017A007970123C895B
:10257E009004C9E004F00222AE90051BE0FFA3E038
:10258E00900517CFF0A3EFF0C2C97F327E00123E46
:03259E0019D2C986
:0125A1002217
:103A1B0090045CE0604090045DE0B4010B7B017AA4
:103A2B00007970120A91802590045DE0B402028047
:103A3B000790045DE0B40305121B30801090045D09
:103A4B00E0B404097B017A007970122F12E4900420
:073A5B005DF090045CF02215
:0B0A91009004C8EBF0A3EAF0A3E9F02A
:100A9C009004D874FFF0A37415F0A3741FF07B01BD
:100AAC007A0079701229599004CBEEF0A3EFF04E36
:100ABC007003020B4B9005387401F0E49004CDF0F8
:100ACC00A3F09004CDE0FAA3E0FBC39408EA9400F1
:100ADC00506490000875F00EEB12089DEA75F00E4C
:100AEC00A42583F58312086C0000000090000475A7
:100AFC00F00EEB12089DEA75F00EA42583F583E049
:100B0C00FCA3E0FDA3E0FEA3E0FF9004CDE0FAA37C
:100B1C00E090000075F00E12089DEA75F00EA42509
:100B2C0083F5831208609004CEE004F07094900476
:100B3C00CDE004F0808C7BFF7A157925020C269091
:100B4C0004D874FFF0A37415F0A3742FF07B017A12
:100B5C000079701229599004CBEEF0A3EFF04E708F
:100B6C0003020C299004D874FFF0A37415F0A3743D
:100B7C0035F0A37401F0A37404F0A374CFF09004C7
:100B8C00C8E0FBA3E0FAA3E0F9121F88EF4E700354
:100B9C000211169004CFE0FAA3E0FB90000875F068
:100BAC000E12089DEA75F00EA42583F58312086CCD
:100BBC000000000090000475F00EEB12089DEA7521
:100BCC00F00EA42583F583E0FCA3E0FDA3E0FEA3D7
:100BDC00E0FF9004CFE0FAA3E090000075F00E1255
:100BEC00089DEA75F00EA42583F583120860900425
:100BFC00DC74FFF0A37415F0A3743EF09004CFE006
:100C0C00FFA3E09004DFCFF0A3EFF07B017A04792F
:100C1C005F1217127B017A04795F023CEE9004D8C4
:100C2C0074FFF0A37415F0A37449F07B017A00797A
:100C3C00701229599004CBEEF0A3EFF04E600475BE
:100C4C00C720229004D874FFF0A37415F0A3744F3E
:100C5C00F07B017A0079701229599004CBEEF0A345
:100C6C00EFF04E604C9004D874FFF0A37415F0A311
:100C7C007455F0A37401F0A37404F0A374D1F0A321
:100C8C007401F0A37404F0A374D3F09004C8E0FBD7
:100C9C00A3E0FAA3E0F9121F88EF4E7003021116BD
:100CAC009004D1E0FEA3E0FFA3E0FCA3E0FD02333F
:100CBC00019004D874FFF0A37415F0A37461F07B59
:100CCC00017A0079701229599004CBEEF0A3EFF061
:100CDC004E604C9004D874FFF0A37415F0A37467A5
:100CEC00F0A37401F0A37404F0A374D1F0A3740105
:100CFC00F0A37404F0A374D3F09004C8E0FBA3E059
:100D0C00FAA3E0F9121F88EF4E700302111690043B
:100D1C00D1E0FEA3E0FFA3E0FCA3E0FD0230C8900D
:100D2C0004D874FFF0A37415F0A37473F07B017AEC
:100D3C000079701229599004CBEEF0A3EFF04E60BD
:100D4C00419004D874FFF0A37415F0A37479F0A348
:100D5C007401F0A37404F0A374D1F09004C8E0FB08
:100D6C00A3E0FAA3E0F9121F88EF4E7003021116EC
:100D7C009004D1E0FEA3E0FF1238C890053874014E
:100D8C00F0229004D874FFF0A37415F0A37482F0D1
:100D9C007B017A0079701229599004CBEEF0A3EF05
:100DAC00F04E7003020E339004D874FFF0A3741548
:100DBC00F0A37488F0A37401F0A37405F0A3743D40
:100DCC00F0A37401F0A37405F0A3743FF0A37401B5
:100DDC00F0A37405F0A37441F09004C8E0FBA3E009
:100DEC00FAA3E0F9121F88EF4E700302111690055A
:100DFC003FE0FCA3E0FD90053DE0FEA3E0FF6D703D
:100E0C0002EE6C600F900539EEF0A3EFF0E4900564
:100E1C0038F080031238C8900541E0FFA3E090053C
:100E2C003BCFF0A3EFF0229004D874FFF0A374151D
:100E3C00F0A37497F07B017A007970122959900411
:100E4C00CBEEF0A3EFF04E604C9004D874FFF0A3FF
:100E5C007415F0A3749DF0A37401F0A37404F0A3B3
:100E6C0074D1F0A37401F0A37404F0A374D3F090C4
:100E7C0004C8E0FBA3E0FAA3E0F9121F88EF4E7060
:100E8C00030211169004D1E0FEA3E0FFA3E0FCA343
:100E9C00E0FD020FBA9004D874FFF0A37415F0A310
:100EAC0074A9F07B017A0079701229599004CBEE69
:100EBC00F0A3EFF04E600D900543E014F0E07033BA
:100ECC0004F0802F9004D874FFF0A37415F0A37471
:100EDC00AFF07B017A0079701229599004CBEEF0B7
:100EEC00A3EFF04E6019900543E004F0E0B4040366
:100EFC007403F0C2C97F647E00123E19D2C92290DD
:100F0C0004D874FFF0A37415F0A374B5F07B017AC8
:100F1C000079701229599004CBEEF0A3EFF04E60DB
:100F2C000B7DE87C037FE87E03020FBA9004D87433
:100F3C00FFF0A37415F0A374C3F07B017A007970F1
:100F4C001229599004CBEEF0A3EFF04E600A7D18F5
:100F5C007CFC7F187EFC80569004D874FFF0A37440
:100F6C0015F0A374D2F07B017A0079701229599094
:100F7C0004CBEEF0A3EFF04E600A7DE87C037F1803
:100F8C007EFC802A9004D874FFF0A37415F0A3742F
:100F9C00DDF07B017A0079701229599004CBEEF0C8
:100FAC00A3EFF04E600B7D187CFC7FE87E03022BD8
:100FBC006E9004D874FFF0A37415F0A374E9F07B61
:100FCC00017A0079701229599004CBEEF0A3EFF05E
:100FDC004E70030210EB7BFF7A1579EF123CEEE4B6
:100FEC009004CDF0A3F09004CDE0FAA3E0FBC39401
:100FFC0008EA9400400302111690000075F00EEB05
:10100C0012089DEA75F00EA42583F58312086C4432
:10101C00BB800090000C75F00EEB12089DEA75F089
:10102C000EA42583F5837407F0A374D0F09004CD3F
:10103C00E0FEA3E090000C75F00E12089DEE75F02A
:10104C000EA42583F583E0FCA3E0FDEC120367E41A
:10105C00FBFA79A07841120247C004C005C006C053
:10106C00079004CDE0FEA3E0FF90000475F00E1293
:10107C00089DEE75F00EA42583F583E0F8A3E0F946
:10108C00A3E0FAA3E0FB90000075F00EEF12089DB0
:10109C00EE75F00EA42583F583E0FCA3E0FDA3E040
:1010AC00FEA3E0FF120049D003D002D001D0001201
:1010BC0002479004CDE0FAA3E090000875F00E1200
:1010CC00089DEA75F00EA42583F583120860900440
:1010DC00CEE004F070069004CDE004F0020FF29024
:1010EC0004D874FFF0A37415F0A374FFF07B017A9D
:1010FC000079701229599004CBEEF0A3EFF04E60FA
:0A110C00097BFF7A167906123C8970
:0111160022B6
:0B2F12009004C8EBF0A3EAF0A3E9F084
:102F1D00E4A3F0A3F01234E49004CBEEF0A3EFF0B1
:102F2D00F47002EEF460159004C8E0FBA3E0FAA380
:102F3D00E0F99000061206E2642360097BFF7A1621
:102F4D00790A022FEE9004CCE07B00FA7C107D0014
:102F5D007F00FE120755ED4C70127C10FDFFAE0286
:102F6D00120755EE3395E0FDFC1238609004C8E071
:102F7D00FBA3E0FAA3E0F99004D1747BF07D3C1241
:102F8D003EC49004C8E0FBA3E0FAA3E0F99004D19D
:102F9D00747DF07D3E123EC49004C8E0FBA3E0FAC0
:102FAD00A3E0F9123F1FEF2401FFE43E9004D4F09B
:102FBD00A3EFF09004C8E0FBA3E0FAA3E0F99004BE
:102FCD00CCE07F00FE3395E0FDFC122C609004C830
:102FDD00E0FBA3E0FAA3E0F9123C897BFF7A1679B6
:042FED000C123C89FD
:012FF10022BD
:0B34E4009004CDEBF0A3EAF0A3E9F0A8
:1034EF00E4A3F0A3F09004CDE0FBA3E0FAA3E0F98E
:1034FF001206C96067644770579004CE80419004EC
:10350F00CDE0FBA3E0FAA3E0F91206C9FF64236044
:10351F0036EF64246031EFFB7A009004D0E0FEA315
:10352F00E0FF7C007D0A120743EF2BFFEA3ECF241A
:10353F00D0CF34FF9004D0F0A3EFF09004CEE47519
:10354F00F00112078B80B79004D0E0FEA3E0FF22BA
:10355F009004CEE475F00112078B80897EFF7FFF08
:01356F002239
:103301009004D5EEF0A3EFF0A3ECF0A3EDF0900460
:10331100D7E0FEA3E0FFD39004D6E09FEE6480F8EF
:103321009004D5E064809840179004DC7401F0A308
:103331007404F0A374D7F07B017A0479D5123AECC6
:103341009004D7E0FEA3E0FFD39004D6E09FEE64A3
:1033510080F89004D5E0648098504F7E037FEC7D27
:10336100007B017A0079701209F87B017A0079708B
:103371009004D6E07F00FE3395E0FDFC9004E074FC
:1033810001F0A3E4F01233AC7B017A007970123CB6
:10339100897BFF7A16790E123C899004D6E004F0FD
:0B33A100709E9004D5E004F08096229E
:0B3AEC009004D9EBF0A3EAF0A3E9F08E
:103AF7001207B7FFAEF09004DCE0FBA3E0FAA3E007
:103B0700F91207B7FD9004D9E0FBA3E0FAA3E0F9A7
:103B1700E5F08DF01207E29004DCE0FBA3E0FAA3E6
:083B2700E0F9EE8FF00207E265
:1030C8009004D5EEF0A3EFF0A3ECF0A3EDF090049C
:1030D800D7E0FEA3E0FFD39004D6E09FEE6480F82B
:1030E8009004D5E064809840179004DC7401F0A344
:1030F8007404F0A374D7F07B017A0479D5123AEC02
:10310800C39004D8E0947F9004D7E0648094804012
:1031180006E4F0A3747FF09004D7E0FCA3E0FD90F0
:1031280004D5E0FEA3E0FFD39DEC6480F8EE648054
:10313800985048EE3395E0FDFC1238609004DC743A
:10314800FFF0A37416F0A37411F09004D5E0FFA368
:10315800E09004DFCFF0A3EFF07B017A04795F12EF
:1031680017127B017A04795F123C899004D6E00437
:10317800F070A49004D5E004F0809C900534120807
:063188006C0000000022B3
:1038C8009004D5EEF0A3EFF07E037FEC7D007B0142
:1038D8007A0079701209F87B017A0079709004D621
:1038E800E07F00FE3395E0FDFC9004E07401F0A356
:1038F800E4F01233AC121B309004DC74FFF0A374B4
:1039080016F0A3741FF09004D5E0FFA3E09004DF45
:10391800CFF0A3EFF07B017A04795F1217127B01D5
:073928007A04795F023C897B
:102E30001235FCEF6003022F11900538E0600302A9
:102E40002F11A3E0FEA3E0FF1238C890053FE0FE7B
:102E5000A3E0FF90053DE0FCA3E0FDC39FEE64808E
:102E6000F8EC648098504C900539E0B50636A3E044
:102E7000B50731900539ECF0A3EDF0900541E07015
:102E800002A3E07003022F1190053CE024FFF090B4
:102E9000053BE034FFF0E07002A3E0705D90053880
:102EA00004F0805690053AE004F07065900539E032
:102EB00004F02290053FE0FEA3E0FF900539E06EAC
:102EC0007003A3E06F703C90053DE0FFA3E0900528
:102ED00039CFF0A3EFF0900541E07002A3E060313C
:102EE00090053CE024FFF090053BE034FFF0E070FB
:102EF00002A3E0700590053804F07BFF7A1679355F
:102F0000023C8990053AE024FFF0900539E034FF57
:022F1000F022AD
:1035FC009004CA12086C00000000E49004C8F0A308
:10360C00F09004C8E0FEA3E0FFC39408EE6480943D
:10361C0080505AA3E0F8A3E0F9A3E0FAA3E0FB90F2
:10362C00000875F00EEF12089DEE75F00EA42583C0
:10363C00F583E0FCA3E0FDA3E0FEA3E0FF12004D48
:10364C009004CA1208609004CAE0FCA3E0FDA3E059
:10365C00FEA3E0FFEC4D4E4F60037F01229004C9A6
:0F366C00E004F0709C9004C8E004F080947F00AC
:01367B00222C
:061B30007B017A007970D0
:0B1B36009004D7EBF0A3EAF0A3E9F065
:101B4100123CEE7BFF7A16790E123CEEE49004DE35
:101B5100F0A3F09004E2F0A3F09004D7E0FBA3E03F
:101B6100FAA3E0F99004DEE0FEA3E0F5828E831291
:101B710006E2FF7003021EFE642370769004DEA36A
:101B8100E0FFA3EEF0A3EFF0E49004DAF0A3F0900D
:101B910004DFE004F070069004DEE004F09004D766
:101BA100E0FBA3E0FAA3E0F99004DEE0FEA3E0F598
:101BB100828E831206E2FF60A06450609CEFFB7A84
:101BC100009004DAE0FEA3E0FF7C007D0A120743E7
:101BD100EF2BFFEA3ECF24D0CF34FF9004DAF0A3FD
:101BE100EFF09004DFE004F070B39004DEE004F065
:101BF10080AB9004D7E0FBA3E0FAA3E0F99004DE08
:101C0100E0FEA3E0F5828E831206E26450600302D7
:101C11001CAE9004E412086C000000009004DFE0A8
:101C210004F070069004DEE004F09004D7E0FBA31A
:101C3100E0FAA3E0F99004DEE0FEA3E0F5828E83F2
:101C41001206E2FF7003021B5A64547003021B5A0E
:101C51009004DEA3E0F5828E831206E2FCE4120317
:101C61006CC004C005C006C007E4FFFE7D207C41B6
:101C71009004E4E0F8A3E0F9A3E0FAA3E0FB120189
:101C81003ED003D002D001D00012004DE4FBFA791E
:101C91004078C212004D9004E41208609004DFE025
:101CA10004F070869004DEE004F0021C2B9004D74F
:101CB100E0FBA3E0FAA3E0F99004DEE0FEA3E0F587
:101CC100828E831206E264546003021EED9004DCEE
:101CD100F0A3F09004DFE004F070069004DEE0046D
:101CE100F09004D7E0FBA3E0FAA3E0F99004DEE072
:101CF100FEA3E0F5828E831206E2FF603964216063
:101D010035EFFB7A009004DCE0FEA3E0FF7C007D70
:101D11000A120743EF2BFFEA3ECF24D0CF34FF90C6
:101D210004DCF0A3EFF09004DFE004F070B3900462
:101D3100DEE004F080ABC39004DBE094089004DAA9
:101D4100E094004003021B5A7F007E407D1C7C45CD
:101D51009004E4E0F8A3E0F9A3E0FAA3E0FB1202A7
:101D6100E460054003021B5AE4FFFE7DFA7C4390C8
:101D710004E4E0F8A3E0F9A3E0FAA3E0FB1202E433
:101D81005003021B5A9004DDE094109004DCE094AF
:101D9100274003021B5A9004DAE0FEA3E0900004FE
:101DA10075F00E12089DEE75F00EA42583F583E003
:101DB100FCA3E0FDA3E0FEA3E0FF9004E4E0F8A3B0
:101DC100E0F9A3E0FAA3E0FB1202E4701B7FCD7EF1
:101DD100CC7DCC7C3D9004E4E0F8A3E0F9A3E0FAEB
:101DE100A3E0FB12004D800E9004E4E0FCA3E0FDB3
:101DF100A3E0FEA3E0FF9004DAE0FAA3E090000084
:101E010075F00E12089DEA75F00EA42583F5831274
:101E11000860C39004DDE094149004DCE094005069
:101E210006E4F0A37414F09004DCE0FEA3E0FF905C
:101E310004DAE0FCA3E0FD90000C75F00E12089DA1
:101E4100EC75F00EA42583F583EEF0A3EFF090007E
:101E51000C75F00EED12089DEC75F00EA42583F5BE
:101E610083E0FCA3E0FDEC120367E4FBFA79A078C0
:101E710041120247C004C005C006C0079004DAE061
:101E8100FEA3E0FF90000475F00E12089DEE75F0C0
:101E91000EA42583F583E0F8A3E0F9A3E0FAA3E01B
:101EA100FB90000075F00EEF12089DEE75F00EA488
:101EB1002583F583E0FCA3E0FDA3E0FEA3E0FF1290
:101EC1000049D003D002D001D0001202479004DAB9
:101ED100E0FAA3E090000875F00E12089DEA75F093
:101EE1000EA42583F583120860021B5A9004DFE0DB
:0D1EF10004F070069004DEE004F0021B5ABD
:011EFE0022C1
:103EC4001206C96013B505079004D1E012070F74F8
:093ED4000129F9E43AFA80E82220
:102B6E009004D7ECF0A3EDF09004D5EEF0A3EFF0C7
:102B7E00C394E8EE64809483400C9004D57403F003
:102B8E00A374E7F080299004D5E0FEA3E0FFD39470
:102B9E0018EE6480947C500C9004D574FCF0A374F1
:102BAE0019F0800BEF4E70079004D5F0A304F0904F
:102BBE0004D7E0FEA3E0FFC394E8EE648094834064
:102BCE000C9004D77403F0A374E7F08022D3EF9433
:102BDE0018EE6480947C500C9004D774FCF0A374AF
:102BEE0019F0800BEF4E70079004D7F0A304F0900D
:102BFE0004D5E0FEA3E0FFD39400EE648094804001
:102C0E0007123D1DE4FF8014E4FFFE123D1D9004EB
:102C1E00D5E0FEA3E0FFC3E49FFFE49EFE123D4815
:102C2E009004D7E0FEA3E0FFD39400EE648094807E
:102C3E004007123D73E4FF8014E4FFFE123D7390D3
:102C4E0004D7E0FEA3E0FFC3E49FFFE49EFE123D27
:022C5E009E22B4
:10392F00123FB1C004C005C006C007123FA2D003AA
:10393F00D002D001D000C3EF9BFFEE9AFEED99FDB0
:10394F00EC98FCE47B64FAF9F8C312080F5010905E
:10395F00051DE0701BD28ED2AB04F0E4A3F02290D1
:10396F00051EE0700BC28EC2AB90051DF0A304F0D4
:01397F002225
:102A7200123FA2900521E0F8A3E0F9A3E0FAA3E057
:102A8200FBC3EF9BFFEE9AFEED99FDEC98FCE47B15
:102A9200F47A01F9F8D312080F4003022B6D123FAA
:102AA200A29005211208607F07123E61900525EE73
:102AB200F0A3EFF0FDAC06E41203677B007AC07965
:102AC2007F7844120247E4FBFA79A0784112013E72
:102AD2007B667A6679A678401202E4507C900525DE
:102AE200E0FCA3E0FDE41203677B007AC0797F7803
:102AF20044120247E4FBFA79A0784112013EE4FB5A
:102B0200FA79D078401202E4604F404D90051FE000
:102B1200FF6004C2C98002D2C9EF70047F01800243
:102B22007F0090051FEFF0E4A3F09004DC74FFF047
:102B3200A37416F0A37445F0900525E0FFA3E0907E
:102B420004DFCFF0A3EFF07B017A04795F12171252
:102B52007B017A04795F023C89900520E004F0E071
:0B2B6200B40103D2C922E4900520F06A
:012B6D002245
:07400500D2A7D2C5D2A6220A
:0936FC00F9EF1207211206C9FFC3
:103705009004CCEFF0E49004CBF09004CDF090045D
:10371500CDE0FFC39408505574017E00A8070880CA
:1037250005C333CE33CED8F9FF9004CCE0FDEF5D71
:1037350024FF92C5D2A6C2A67F0A7E00123FCDD233
:10374500A630C21A9004CBE0FF9004CDE0FE7401D0
:10375500A806088002C333D8FC4F9004CBF07F0A3B
:103765007E00123FCD9004CDE004F080A19004CB03
:02377500E0FF73
:01377700222F
:103251009004C8EBF0A3EAF0A3E9F0C2A77F011242
:1032610037059004C8E0FBA3E0FAA3E0F9EF1207E9
:103271000F7F421237059004C8E0FBA3E0FAA3E0F8
:103281009000011236FC9004C8E0FBA3E0FAA3E031
:103291009000021236FC9004C8E0FBA3E0FAA3E020
:1032A100F99000031236FD9004C8E0FBA3E0FAA3F5
:1032B100E0F99000041236FD9004C8E0FBA3E0FAA7
:1032C100A3E0F99000051236FD9004C8E0FBA3E0ED
:1032D100FAA3E0F99000061236FD9004C8E0FBA3C2
:1032E100E0FAA3E0F99000071236FD9004C8E0FB74
:1032F100A3E0FAA3E0F9900008EF120721D2A72278
:1037780043BA8090FFF2741FF090FFF0EEF0A3EFD1
:10378800F090FF00E4F0A304F0A3E4F0A3F0A3F0AA
:1037980090FF10F0A304F0A3E4F0A3F0A3F090FFCF
:1037A80020F0A304F0A3E4F0A3F0A3F090FF30F01E
:1037B800A304F0A3E4F0A3F0A3F090FF40F0A30467
:1037C800F0A3E4F0A3F0A37408F090FF50E4F0A392
:1037D80004F0A3E4F0A3F0A37408F0E4F5F175F5A0
:0837E8003F43F58053BA7F2234
:103D1D00EF4E700653F5FEC2B722C3EF94E8EE9452
:103D2D0003400653F5FED2B72243BA8090FF00EE52
:0B3D3D00F0A3EFF053BA7F43F5012222
:103D4800EF4E700653F5FDC2A122C3EF94E8EE943E
:103D580003400653F5FDD2A12243BA8090FF10EE2E
:0B3D6800F0A3EFF053BA7F43F50222F6
:103D7300EF4E700653F5FBC2A222C3EF94E8EE9414
:103D830003400653F5FBD2A22243BA8090FF20EEF4
:0B3D9300F0A3EFF053BA7F43F50422C9
:103D9E00EF4E700653F5F7C2A322C3EF94E8EE94EC
:103DAE0003400653F5F7D2A32243BA8090FF30EEBC
:0B3DBE00F0A3EFF053BA7F43F508229A
:0F36D70044055E0000000041055C0041055D00F8
:0F3FA20090055EE0FCA3E0FDA3E0FEA3E0FF229C
:103EF500438E805389F0758A9A758CA9C28DD28CB0
:053F0500D2A9D2AF2299
:103EDD00438E4053890F438910E4F58B758D28C2AD
:083EED008FD28ED2ABD2AF22BE
:103C53009004C3EEF0A3EFF0FDAC06EC1203677B18
:103C6300E27A5879A3784112013EA804A905AA066D
:103C7300AB07E4FFFE7D807C471200491203A08F4F
:063C83008BEEFF8F8D2285
:103B2F009004C4120860E4FFFEFDFC9004C4E0F8AA
:103B3F00A3E0F9A3E0FAA3E0FB1202E46011400F47
:103B4F009004C4E0FCA3E0FDA3E0FEA3E0FF2290FD
:103B5F0004C4E0FCA3E0FDA3E0FEA3E0FF120351C9
:013B6F002233
:102820009004C3EFF075F00EA42408F582E43400A0
:10283000F583E0FCA3E0FDA3E0FEA3E0FFE4FBFAE8
:10284000F9F81202E470030229589004C3E075F00D
:102850000EA42408F582E43400F583E0FCA3E0FD37
:10286000A3E0FEA3E0FFA804A905AA06FB12004D01
:10287000123B2FC004C005C006C0079004C3E0FF90
:1028800075F00EA42404F582E43400F583E0F8A387
:10289000E0F9A3E0FAA3E0FBEF75F00EA42400F545
:1028A00082E43400F583E0FCA3E0FDA3E0FEA3E0B6
:1028B000FF120049123B2FA804A905AA06AB07D0B6
:1028C00007D006D005D0041202E49004C360025081
:1028D00044E0FB75F00EA42400F582E43400F58397
:1028E000E0FCA3E0FDA3E0FEA3E0FFEB75F00EA487
:1028F0002404F582E43400F5831208609004C3E0F8
:1029000075F00EA42408F582E43400F58312086CF7
:102910000000000022E075F00EA42404F582E434E7
:1029200000F583C083C082E0FCA3E0FDA3E0FEA32A
:10293000E0FF9004C3E075F00EA42408F582E434AF
:1029400000F583E0F8A3E0F9A3E0FAA3E0FB1200AE
:092950004DD082D08312086022F0
:03000B000239D0E7
:1039D000C0E0C0F0C083C082C0D075D000C000C0BD
:1039E00004C005C006C00790055EE0FCA3E0FDA38F
:1039F000E0FEA3E02401FFE43EFEE43DFDE43CFCE8
:103A000090055E120860D007D006D005D004D00023
:0B3A1000D0D0D082D083D0F0D0E032C4
:03001B00022FF2BF
:102FF200C0E0C0F0C083C082C0D075D000C000C0A5
:0D30020001C002C003C004C005C006C00725
:10300F0090055DE0B40802E4F090055CE07034A335
:10301F00E075F00EA42404F582E43400F583E0FC9F
:10302F00A3E0FDA3E0FEA3E0FF1203A0123C539028
:10303F00055DE0FF7D01123BAD90055DE0FF1228BD
:10304F0020804A90055DE075F00EA42404F582E41B
:10305F003400F583E0FCA3E0FDA3E0FEA3E0FF1244
:10306F0003A0C374C49FFF74099EFEC3EF9414EEB4
:10307F006480948050047E007F14123C5390055D51
:10308F00E0FFE4FD123BAD90055DE004F090055CC0
:0E309F00E070047F0180027F0090055CEFF07E
:1030AD00D007D006D005D004D003D002D001D00077
:0B30BD00D0D0D082D083D0F0D0E03221
:1036E60041055700440558000000004205510000FE
:0536F600420554000034
:0F3FB100900558E0FCA3E0FDA3E0FEA3E0FF2293
:103F340043985075D7D075D6FF438E15E4F587D2D4
:043F4400AFD2AC222A
:103F7000759A5075D7D075D6FF75AF01D2AF43BAD9
:023F800001221C
:03004000D2AC221D
:03401000C2AC221D
:04001E0075AF012297
:04400C00E4F5AF2206
:080003008F993099FDC299228A
:0F002600A3E475F0011207A1A9F0FA1206C9FFB1
:0B0035008F9BE59A30E1FB539AFD22FF
:103C89009004D9EBF0A3EAF0A3E9F09004D9E0FBA2
:103C9900A3E0FAA3E0F91206C960179004D9A3E4D6
:103CA90075F0011207A1A9F0FA1206C9FF12000363
:033CB90080D9228D
:103E3D009004C8EBF0A3EAF0A3E9F09004C8E0FB0E
:103E4D00A3E0FAA3E0F91206C960089004C81200B5
:043E5D002680E822B1
:103CEE009004E8EBF0A3EAF0A3E9F090045C740111
:103CFE00F09004E8E0FBA3E0FAA3E0F91206C96035
:0F3D0E00089004E812002680E8E490045CF0229C
:030023000226E4CE
:0D26E400C0E0C0F0C083C082C0D075D00837
:1026F10020980302281590045CE0600302281590DD
:102701000553E599F0C298E0B43C1890045D740457
:10271100F0900551E4F0A3F0123FA2900558120881
:1027210060803F90045DE07039900553E0FFB42470
:102731000890045D7401F08022EFB4230890045DD9
:102741007402F08016EFB47B0890045D7403F0808E
:102751000AEFB43C0690045D7404F0900551E4F076
:10276100A3F0900553E0FF900551E475F0011207C5
:10277100A1FC747025F0F58274003CF583EFF090B4
:10278100045DE0FEB40415EF643E7075900551E000
:10279100FCA3E02470F58274003C8055EEB401176F
:1027A100900553E0B42110900551E0FEA3E02470A0
:1027B100F58274003E803A90045DE0B40217900502
:1027C10053E0B42110900551E0FEA3E02470F5829E
:1027D10074003E801C90045DE0B40325900553E035
:1027E100B47D1E900551E0FEA3E02470F5827400D3
:1027F1003EF583E4F090045C04F0900551E4F0A30D
:10280100F0C3900552E094E8900551E09403400430
:04281100E4F0A3F05C
:0B281500D0D0D082D083D0F0D0E032D1
:030043000225A2F1
:0D25A200C0E0C0F0C083C082C0D075D0087A
:1025AF00E59A20E0030226D9900556E59BF0539A51
:1025BF00FE90045CE060030226D9900556E0B43C1F
:1025CF001890045D7404F0900554E4F0A3F0123FEA
:1025DF00A2900558120860803F90045DE07039901A
:1025EF000556E0FFB4240890045D7401F08022EFDB
:1025FF00B4230890045D7402F08016EFB47B08904A
:10260F00045D7403F0800AEFB43C0690045D74041B
:10261F00F0900554E4F0A3F0900556E0FF900554B8
:10262F00E475F0011207A1FC747025F0F5827400B7
:10263F003CF583EFF090045DE0FEB40415EF643ECB
:10264F007075900554E0FCA3E02470F58274003C93
:10265F008055EEB40117900556E0B4211090055443
:10266F00E0FEA3E02470F58274003E803A90045D92
:10267F00E0B40217900556E0B42110900554E0FE27
:10268F00A3E02470F58274003E801C90045DE0B4DA
:10269F000325900556E0B47D1E900554E0FEA3E09F
:1026AF002470F58274003EF583E4F090045C04F02E
:1026BF00900554E4F0A3F0C3900555E094E890051D
:0A26CF0054E094034004E4F0A3F08B
:0B26D900D0D0D082D083D0F0D0E0320F
:093FEC0053B3FE53B4FE023F92F0
:0F3F8200E4C2C07F05123FC07FFF123FC0D2C014
:013F9100220D
:0A3FD800C2C07F06123FC0D2C02213
:103A6200E49004C8F0A3F0C2C07F90123FC0E4FF0C
:103A7200123FC0E4FF123FC0E4FF123FC07FFF12BB
:103A82003FC0EFFE9004C8E04EF0A3E0F07FFF12CB
:103A92003FC09004C8E0FEA3E04FFF9004C8EEF0E0
:063AA200FEA3EFF0D2C00C
:013AA80022FB
:0F33AC009004D9EBF0A3EAF0A3E9F0A3120860B4
:1033BB00C2C07F03123FC09004DCE0FCA3E0FDA37E
:1033CB00E0FEA3E0FF7810120820123FC09004DC4F
:1033DB00E0FCA3E0FDA3E0FEA3E0FF7808120820C9
:1033EB00123FC09004DCE0FCA3E0FDA3E0FEA3E0F1
:1033FB00FFE4123FC0E49004E2F0A3F09004E0E09D
:10340B00FEA3E0FFC39004E3E09F9004E2E09E5034
:10341B002F7FFF123FC09004D9E0FBA3E0FAA3E09B
:10342B00F99004E2E0FCA3E0F5828C83EF12072114
:10343B009004E3E004F070C49004E2E004F080BC7C
:02344B00D2C0ED
:01344D00225C
:0F344E009004D8EBF0A3EAF0A3E9F0A312086012
:10345D00123FD8C2C07F02123FC09004DBE0FCA334
:10346D00E0FDA3E0FEA3E0FF7810120820123FC09C
:10347D009004DBE0FCA3E0FDA3E0FEA3E0FF7808F1
:10348D00120820123FC09004DBA3A3A3E0FF123F5C
:10349D00C0E49004E1F0A3F09004DFE0FEA3E0FFB0
:1034AD00A3E0FCA3E0FDC39FEC9E50269004D8E062
:1034BD00FBA3E0FAA3E0F98D828C831206E2FF12E2
:1034CD003FC09004E2E004F070CE9004E1E004F01F
:0734DD0080C6D2C0023FF5DA
:0F2C60009004CDEBF0A3EAF0A3E9F0A312086013
:102C6F009004D0A3A3A3E0FFE4C39FFF74019400DB
:102C7F00FE9004D6F0A3EFF09004D4E0FCA3E0FDA7
:102C8F00D39FEC9E5006A3ECF0A3EDF09004D0E0A0
:102C9F00FCA3E0FDA3E0FEA3E0FF9004D6E0FBA3BE
:102CAF00E09004DFCBF0A3EBF09004CDE0FBA3E0CA
:102CBF00FAA3E0F912344E9004D6E0FEA3E0FF90A1
:102CCF0004D4E0B50606A3E0B50701229004D6E0D0
:102CDF00FEA3E0FF9004CEEE8FF012078B9004D08E
:102CEF00E0F8A3E0F9A3E0FAA3E0FBE4FCFDEB2F8F
:102CFF00FFEA3EFEED39FDEC38FC9004D01208607F
:102D0F009004D6E0FEA3E0FFC39004D5E09FFF90B0
:102D1F0004D4E09EFEF0A3EFF0D39400EE940140B4
:102D2F000AA37401F0A3E4F0022C9B9004D4E0FFFB
:0B2D3F00A3E0A3CFF0A3EFF0022C9B59
:063CBC00900547120860AC
:103CC20090054D12086C00000000C003900547E00B
:103CD200FCA3E0FDA3E0FEA3E0FFA3E0FBA3E090D2
:0C3CE20004D4CBF0A3EBF0D003022C6064
:103860009004D91208609004D9E0FCA3E0FDA3E025
:10387000FEA3E0FF780C1208339004D912086012FE
:103880003FD8123FF5C2C07F20123FC09004D9E05C
:10389000FCA3E0FDA3E0FEA3E0FF781012082012D5
:1038A0003FC09004D9E0FCA3E0FDA3E0FEA3E0FF4D
:1038B0007808120820123FC09004D9A3A3A3E0FF08
:0838C000123FC0D2C0023FF527
:083FF500123F82EF20E0F922E7
:103F92005391FB439204E4F5CF75CDC075CED02288
:0D3FC0008FCFE5CD30E7FB75CDC0AFCF2230
:103F0A007401A807088002C333D8FCF59DE4F5BD07
:053F1A0075BC80FF22D0
:103E6100EF4488F5BC00000000E5BC30E4FB53BC26
:103E7100EFAFBDEF75F004A4ADBE7C002DFFEC35B6
:033E8100F0FE222E
:1000460002040CE86480F8E933E83360110460F0D8
:10005600ED33EC337009E8FCE9FDEAFEEBFF220420
:1000660060DED3EB9FEA9EE99DE8C2E78CF0C2F71B
:1000760095F0400CE8CCF8E9CDF9EACEFAEBCFFBE7
:100086001203D785D0F05804700320D5B3E8047066
:10009600075002B2D502041692D5EC0460F7E4CC00
:1000A600C0E0C398F8603B94186008400DD0E0FBB0
:1000B6000203EEE4FBFAC9FC8028E830E406E4C952
:1000C600FBE4CAFCE830E305E4C9CACBFCE8540704
:1000D6006010F8C3E913F9EA13FAEB13FBEC13FC0F
:1000E600D8F130F52FC3E49CFCEF9BFFEE9AFEEDB2
:1000F60099FDD0E0FBEF4E4D4C701222DB0302045B
:1001060013EC2CFCEF33FFEE33FEED33FDED30E761
:10011600EB0203EEEF2BFFEE3AFEED39FDD0E0FBEE
:1001260050130BBB0003020416ED13FDEE13FEEF96
:0801360013FFEC13FC0203EEC1
:10013E00EC4D6011E8497017ED33EC3304600DE4BB
:10014E00FCFFFEFD22E933E8330470F802040C12C2
:10015E0003D758046009E4CC2481500628500902C4
:10016E000416284003020413C0E0EB4A7044B98021
:10017E0006D0E0FB020402EF4E701CBD8008EBFFC0
:10018E00EAFEE9FD80EBE98DF0A4FEE5F002022720
:10019E00E9CDF9EAFEEBFFEF89F0A4FCE5F0CE899C
:1001AE00F0A42EFFE435F0CD89F0A42DFEE435F059
:1001BE008067EF4E7005BD80D780C3EF8BF0A4AC87
:1001CE00F0EE8BF0A42CFCE435F0F8EF8AF0A42CC2
:1001DE00E5F038FCE433CB8DF0A42CFCE5F03BF8D5
:1001EE00EE8AF0A42CFCE5F038F8E433CF89F0A4C5
:1001FE002CFCE5F038CF3400CE89F0A42FFFE5F0CB
:10020E003EFEE433C98DF0A42EFEE5F039CD8AF022
:10021E00A42FFFE5F03EFEE43DFD33D0E0FB50079A
:10022E000BBB000F020416EC2CFCEF33FFEE33FE7B
:06023E00ED33FD0203EEAA
:10024400020416EC5D046005E85904700302040C12
:100254001203D7580460F6EC4860F2EC7004FDFE1B
:10026400FF22C860DB2481C85009C398600250068D
:100274000204139850CAF582E9294B4A7005AB82EF
:1002840002040275F0007C1A7880C3EF9BEE9AEDAD
:1002940099400DC3EF9BFFEE9AFEED99FDE842F005
:1002A400DC23ACF0D0E0FFD0E0FED0E0FDAB822058
:1002B400E7101BEB60BAEC2CFCEF33FFEE33FEEDE2
:1002C40033FD0203EEE803F830E705C0F075F000F3
:1002D400EF2FFFEE33FEED33FD40B830E7C280AAC6
:1002E40074F8CC6480CCC86480C8F582046043C3CD
:1002F400EB9FF5F0EA9E42F0E99D42F0E89C45F060
:1003040060305018E5825FFFE582F42B5582FB5084
:10031400210ABA001D09B90019088016E5825BFBA1
:10032400E582F42F5582FF50090EBE00050DBD0075
:10033400010CC3EB9FF5F0EA9E42F0E99D42F0E820
:0D0344009C45F06007CC4820E701B3EC2297
:10035100ED33EC33600A047003BD8004ECB2E7FCBA
:010361002279
:1003620075F020800E75F010800575F0087D007E16
:10037200007F003392D530D503120801EC334010D0
:10038200EF33FFEE33FEED33FDEC33FCD5F0ED221F
:0E039200E5F0247EA2D513CC92E7CDCEFF225B
:1003A000EDD2E7CD33EC3392D524814006E4FFFE55
:1003B000FDFC22FCE4CFCECDCC24E0501174FF80B4
:1003C000EDC3CC13CCCD13CDCE13CECF13CF047051
:0703D000F030D5DE02080148
:1016AD00E51024DCF582E43404F583E00510229086
:1016BD0004D93007039004DCE475F0011208B2027E
:1016CD0006C92000E97F2ED2008018EF540F249018
:1016DD00D43440D4FF30040BEF24BFB41A005003B0
:1016ED002461FFE511600215110514E51470020562
:1016FD001330070E9004D9E475F0011208B2EF0211
:10170D00070F023DF27403D2078003E4C207F51000
:10171D009004D91208E0E4F511F513F514E5116004
:10172D00077F201216F080F57512FFC201C200C2AC
:10173D0002C203C205C206C2081216BCFF700D30EC
:10174D0007057F00121701AF14AE1322B4255FC237
:10175D00D5C2041216BCFF24D0B40A00501A75F07D
:10176D000A781130D50508B6FF0106C6A426F62065
:10177D00D5047002D20380D924CFB41A00EF5004DF
:10178D00C2E5D2040219F3D20180C6D20080C0D2C4
:10179D000280BCD2D580BAD20580B47F201216F05B
:1017AD002002077401B5110040F11216ADFF12169B
:1017BD00F002172AD208D20680951216ADFB12162A
:1017CD00ADFA1216ADF94A4B700679F17A1A7BFF14
:1017DD0020022EE511602A7E008E8275830012068E
:1017ED00E260060EEE651270F0C2D5EBC0E0EAC005
:1017FD00E0E9C0E0EE121A54D0E0F9D0E0FAD0E002
:10180D00FB1206C9FF60AAEBC0E0EAC0E0E9C0E048
:10181D001216F0D0E02401F9D0E03400FAD0E0FB4C
:10182D00E5120460DCD512D98087D20280A2121A8B
:10183D003660F7E512700104120421A912600DE55E
:10184D0012600914F512121ADEEF60F3EA30E702A6
:10185D00F404C3995079EAF425120430E701E40445
:10186D00F512800D121A3660C1EA05122512120406
:10187D0021EA900508F030E701E4251204D51204A1
:10188D0020050114121A54E4C0E0121ADE90050866
:10189D00E0601320E70714F01216D8802204F0D070
:1018AD00E014C0E07F001216D8E51260071216CFC3
:1018BD001512800B3005031216CFD0E002172AD077
:1018CD00E00480C4121A36609EE5120412042190C1
:1018DD000508EAF0E5122005026001042404121A3D
:0118ED0054A6
:1018EE0074FF04C0E0121ADE1216D8E512200502AB
:1018FE0060031216CFD0E0B512E87F451216E290C3
:10190E000508E07F2B30E7047F2DF404C0E01216AB
:10191E00F0D0E075F00A84C0F01216D9D0E012169D
:10192E00D902172A791080027908C206C2088008E7
:10193E00D2D5790A8004790AC2D5E512047002F56F
:10194E0012E4FAFDFEFF1216ADFC7B082001131205
:10195E0016ADFD7B1030000A1216ADFE1216ADFF4D
:10196E007B20EC3382D592D55013C3E43000069F12
:10197E00FFE49EFEE42001039DFDE49CFCE4CBF815
:10198E00C201EC700CCFCECDCCE824F8F870F38009
:10199E0017C3EF33FFEE33FEED33FDEC33FCEB33C9
:1019AE00FB994002FB0FD8E9EB300105F8D0E0C4FB
:1019BE0048B201C0E00AEC4D4E4F78207B0070C259
:1019CE00EAB5120040BCC0E0121A56D0F0D0E020AA
:1019DE000104C4C0E0C4B201C0F01216D9D0F0D5D3
:1019EE00F0EB02172A1208E917C753193258179845
:1019FE004C17944219364F193E44193E4917AD43C0
:101A0E0019445518714618D145183B471B115017EC
:101A1E009C2D17A02E17C32B17A42317C1201AFA1B
:101A2E002A175C48000017BBE512B4FF03751206B7
:101A3E001216ADFC1216ADFD1216ADFE1216ADFF4E
:101A4E0090050102045E790AA2D52003143005091F
:101A5E00B910020404B9080104A2D52006025001EF
:101A6E00042002689202B511005034C0E07F20308D
:101A7E0003197F30A20272067205500F121AADC200
:101A8E0002C206C205C2087F30800F300503E9C0CE
:101A9E00E01216F0300503D0E0F9D0E0B511CC30ED
:101AAE0005177F30B9100C1216F07F583004077FDF
:101ABE00788003B908031216F03002057F2D021646
:101ACE00F07F202008F87F2B2006F322920280CF91
:101ADE007F00B40700500B2401F582E43405F58332
:101AEE00E0FF22286E756C6C2900D2011216AD3003
:101AFE0001F8C201781130D50108F602175C2D509D
:101B0E004349581216AD2403B405004001E4901B5E
:101B1E000C931216E1743A1216E1D20375110402F7
:021B2E0019326A
:101EFF00E51030030104F8232824D8F582E43404D4
:101F0F00F583229004D53003039004D8E475F001D3
:101F1F001208B20206C960EAC5147002151314C57F
:101F2F0014200304FF023FFD9004D574FFF5F00267
:101F3F0008C9FF023F5CE5116006D511037F00223F
:101F4F0020030F123F48EF60080514E514700205D7
:101F5F0013229004D51208A91206C9FF60E8900455
:101F6F00D5E475F0011208B280DC121F4FEFC0E00C
:101F7F00121F41D0E040F3809DD2038002C2039034
:101F8F0004D51208E0E4F512F510F513F5147511E8
:101F9F0000C202C200C201C204121F12FF7005AFBD
:101FAF00127E0022B42530121F12FF24D0B40A0073
:101FBF00500C75F00AC511A42511F51180E924CF35
:101FCF00B41A00EF5002C2E5022225D20180D8D206
:101FDF000080D4D20480D0EF121F415008121F7915
:101FEF00EF600E80A9EFC0E0121F4FD0E06F609E30
:101FFF00EF6074121F2580A7121F4FEF6069E51164
:10200F00700705118003121F4FEF601420040E128A
:10201F001EFFE475F0011208B2EF12070FD511E69B
:10202F002004040510051280BA121F45EFC0E012FC
:10203F001F41D0E05004121F25E4FF20040E121E92
:10204F00FFE475F0011208B2EF12070FEF70DA20FC
:10205F00040405100512808BE51160020511121F93
:10206F0079121F45EF70C6300304E4121F25E512E5
:10207F006003021FAE7EFF7FFF22E5116002051194
:10208F00121F79D206D205121F45EF30060260D714
:10209F00C0E0121F25D0E0AC15AD16AE17AF181269
:1020AF002D5D8C158D168E178F185007121F4FC26E
:1020BF000580D42004102005020512121EFF1208FD
:0320CF00A9051050
:1020D200120846021F9DD0E0809A7900800A79108A
:1020E200800679088002790AD205E511600205119D
:1020F200E9C0E0121F79EF60DD121F4FBF2D04D23D
:10210200028003BF2B09121F79EF60CA121F45D04C
:10211200E0B40A028033B40802802EBF3027700276
:102122007408C205C0E0121F45D0E0BF78028003E8
:10213200BF58160511D511028007D51104D20580AA
:102142000B741080197002740ABF000AEFF8E4FCE5
:10215200FDFEFF0221D8C0E0EF121F25D0E0F9E416
:10216200FCFDFEFFE9C0E0ECC0E0EDC0E0EEC0E047
:10217200EFC0E0121F45EFF8D0E0FFD0E0FED0E064
:10218200FDD0E0FCD0F0E8604DB461004007B47BC4
:10219200005002C2E524D0503DFA24F6500724F93B
:1021A2005034240AFAEAB5F000502BCFA9F0A42F3C
:1021B200FF92D5E9C5F0CEA4A2D53EFE92D5E9C5DF
:1021C200F0CDA4A2D53DFD92D5E9C5F0CCA4A2D50F
:1021D2003CFCC205808EE8C0E020042A20050805E8
:1021E20012300203120801121EFF1208A905102064
:1021F200000B20010DEE8FF01207E2800912084653
:102202008004EF12070FD0E0121F25021F9D200449
:1022120010121EFF1208A90510E5138514F012070B
:10222200E280E81208E920675320E0581FDE4C1FC5
:10223200DA421FB64820E44F20E84420074320DC5E
:102242004920E8552089462089452089471FE22AEE
:0722520022104E00001FE600
:1003D700E9D2E7C933E833F892D5EDD2E7CD33EC6C
:0703E70033FC5002B2D522E5
:1003EE00EC30E7100FBF000C0EBE00080DBD000470
:1003FE000BEB6014A2D5EB13FCED92E7FD2274FF1C
:10040E00FCFDFEFF22E480F8A2D574FF13FC7D8074
:03041E00E480EF88
:10042100F920E73624F950037907E4F42402FBE5C7
:1004310082158270021583DBF6E024FB501BE96014
:1004410014E4F0E582158270021583E004F0B40A29
:0D04510008E4F0D9EE7401F00A22C2D522B1
:10045E00ED33EC3392D5FA602AB4FF33EDC2E77B6D
:10046E00FF60067A047983E4227A04798C20D5041D
:10047E007A047987224E614E002B494E46002D4953
:10048E004E4600E47A08F0A3DAFC7B00740722C023
:10049E0083C082ECC0E0EDC0E0EEC0E0EFC0E0EA69
:1004AE0075F010A4CAABF075F04DA42BFBE435F03B
:1004BE00FCEA2410FAEB34C5FBEC34D9FCEDC2E7B0
:1004CE00FF75F056A4F42411C5F0F434C58FF0A4D2
:1004DE002AE5F03BE43CF020E714120593D0E0FF50
:1004EE00D0E0FED0E0FDD0E0FC1202478014F40410
:1004FE00120593D0E0FFD0E0FED0E0FDD0E0FC127C
:10050E00013ED082D083E0FAEDD2E7CD33EC332436
:10051E0082FBE4C3CF33CFCE33CECD33CD33DBF33B
:10052E007B0775F00A846004F0A31B0AE5F0F0A3C4
:10053E008FF0740AA4FFACF08EF0740AA42CFEACFB
:10054E00F050010C8DF0740AA42CFDE435F0F0A3EC
:05055E00DBDE74072242
:102D4A00C207C208C209C20AF9E4F519F51AFCFD5C
:102D5A00FEFFE91006EA20090CB42D04D209D32299
:102D6A00B42B02D32224D0504794095041240A306C
:102D7A000A15F8851AF0740AA42872E74051C5F0BA
:102D8A00704D85F01AD322D208C0E0E4FBFA79200C
:102D9A00784112013EECF8EDF9EEFAEFFBD0E0FCD7
:102DAA00E412036C12004D3007B41519D322240A19
:102DBA00200A20B4FE0720071AD207D32224EB6088
:102DCA000424E0700EA2099207D20AC209D322C3D0
:102DDA0002040CE4300A0BE51A300902F404A207D3
:102DEA0092093008EA251920D2E5A2E7920A500290
:102DFA00F404B4260050D8CCC0E0EDC0E0EEC0E048
:102E0A00EFC0E0EC120593D0E0FFD0E0FED0E0FD89
:102E1A00D0E0FC200A0512013E8003120247300965
:062E2A0003120351C32254
:100563003F8000004120000042C80000447A0000A0
:10057300461C400047C35000497424004B18968022
:100583004CBEBC205A0E1BCA6753C21C749DC5AE19
:10059300FB60065407601C23231205C1EB5438602B
:1005A300091205AD1205BC12013EECF8EDF9EEFAA5
:1005B300EFCB22EB1205BC80F1543803241C9005C9
:1005C30063FE93FC0EEE93FD0EEE930ECE93FF228D
:0300000002357056
:0C357000787FE4F6D8FD7581210235B7A4
:1005D300E709F608DFFA8046E709F208DFFA803E0A
:1005E30088828C83E709F0A3DFFA8032E309F608F7
:1005F300DFFA8078E309F208DFFA807088828C835F
:10060300E309F0A3DFFA806489828A83E0A3F60812
:10061300DFFA805889828A83E0A3F208DFFA804CEC
:1006230080D280FA80C680D4806980F280338010C3
:1006330080A680EA809A80A880DA80E280CA80332C
:1006430089828A83ECFAE493A3C8C582C8CCC583A4
:10065300CCF0A3C8C582C8CCC583CCDFE9DEE78074
:100663000D89828A83E493A3F608DFF9ECFAA9F0F3
:10067300EDFB2289828A83ECFAE0A3C8C582C8CC49
:10068300C583CCF0A3C8C582C8CCC583CCDFEADE62
:10069300E880DB89828A83E493A3F208DFF980CCC4
:1006A30088F0EF60010E4E60C388F0ED2402B404BD
:1006B3000050B9F582EB2402B4040050AF23234564
:0606C30082239006237360
:1006C900BB010689828A83E0225002E722BBFE022F
:0906D900E32289828A83E4932262
:1006E200BB010CE58229F582E5833AF583E02250CD
:1006F20006E92582F8E622BBFE06E92582F8E22217
:0D070200E58229F582E5833AF583E4932230
:10070F00BB010689828A83F0225002F722BBFE01C9
:02071F00F322C3
:10072100F8BB010DE58229F582E5833AF583E8F00E
:10073100225006E92582C8F622BBFE05E92582C8BA
:02074100F222A2
:10074300EF8DF0A4A8F0CF8CF0A428CE8DF0A42ECA
:02075300FE2284
:10075500C2D5EC30E709B2D5E4C39DFDE49CFCEEBF
:1007650030E715B2D5E4C39FFFE49EFE120A24C309
:10077500E49DFDE49CFC8003120A2430D507C3E404
:060785009FFFE49EFE222E
:10078B00C5F0F8A3E028F0C5F0F8E58215827002F9
:06079B001583E038F02296
:1007A100A3F8E0C5F025F0F0E5821582700215830B
:0607B100E0C838F0E82268
:1007B700BB010A89828A83E0F5F0A3E0225006870D
:1007C700F009E71922BBFE07E3F5F009E3192289CF
:0B07D700828A83E493F5F07401932202
:1007E200BB010A89828A83F0E5F0A3F0225006F762
:0F07F20009A7F01922BBFE06F3E5F009F319225F
:0E080100C3E49FFFE49EFEE49DFDE49CFC2208
:10080F00EB9FF5F0EA9E42F0E99D42F0E89C45F03F
:01081F0022B6
:10082000E8600FECC313FCED13FDEE13FEEF13FFB6
:03083000D8F122DA
:10083300E8600FEFC333FFEE33FEED33FDEC33FC23
:03084300D8F122C7
:10084600BB010789828A830208605005E9F8020A1B
:0A08560079BBFE05E9F8020A8522CD
:0C086000ECF0A3EDF0A3EEF0A3EFF0220B
:10086C00A8828583F0D083D0821208831208831269
:10087C000883120883E473E493A3C583C5F0C5838E
:10088C00C8C582C8F0A3C583C5F0C583C8C582C8D6
:01089C002239
:0C089D00A42582F582E5F03583F5832266
:0908A900E0FBA3E0FAA3E0F92250
:1008B200F8E0FBA3A3E0F925F0F0E58215827002CF
:0708C2001583E0FA38F02273
:1008C900F8E0FBA3A3E025F0F9F0E58215827002B8
:0708D9001583E038FAF0225C
:0908E000EBF0A3EAF0A3E9F02219
:1008E900D083D082F8E4937012740193700DA3A39E
:1008F90093F8740193F5828883E4737402936860B2
:06090900EFA3A3A380DFB1
:103DF200EFB40A07740D123DFD740A309811A899A8
:103E0200B8130CC2983098FDA899C298B811F63030
:073E120099FDC299F5992208
:103F4800100B0B123FE2BF0D027F0A023DF29005F3
:043F580062E0FF2202
:083FFD00900562EFF0D20B22E7
:103F5C00EFC394094005EF940E4004EFB42003D353
:043F6C008001C322EB
:10090F00E709F60870FA8046E709F20870FA803EA8
:10091F0088828C83E709F0A370FA807EE309F608DA
:10092F0070FA8076E309F20870FA806E88828C8301
:10093F00E309F0A370FA806289828A83E0A3F60844
:10094F0070FA805689828A83E0A3F20870FA804A8F
:10095F0080D280FA80C680D4806580F2803180108A
:10096F0080A680EA809A80A880DA80E280CA8031EF
:10097F0089828A83ECFAE493A3C8C582C8CCC58365
:10098F00CCF0A3C8C582C8CCC583CC70E9800D89D3
:10099F00828A83E493A3F60870F9ECFAA9F0EDFBD1
:1009AF002289828A83ECFAE0A3C8C582C8CCC583AA
:1009BF00CCF0A3C8C582C8CCC583CC70EA80DD89D2
:1009CF00828A83E493A3F20870F980CE88F0ED2435
:1009DF0002B4040050C4F582EB2402B4040050BAF0
:0909EF00232345822390095F7364
:103F1F00E4FFFE1206C9600C0FEF70010E09E97085
:053F2F00F20A80EF2200
:1009F800EF4E6012EF60010EEDBB010B89828A8316
:100A0800F0A3DFFCDEFA2289F05007F709DFFCA922
:0C0A1800F022BBFEFCF309DFFCA9F02279
:10357C000237F0E493A3F8E493A34003F68001F23E
:10358C0008DFF48029E493A3F85407240CC8C33350
:10359C00C4540F4420C8834004F456800146F6DF1F
:1035AC00E4800B010204081020408090367CE47EFD
:1035BC00019360BCA3FF543F30E509541FFEE49314
:1035CC00A360010ECF54C025E060A840B8E493A3DB
:1035DC00FAE493A3F8E493A3C8C582C8CAC583CA06
:1035EC00F0A3C8C582C8CAC583CADFE9DEE780BEBE
:0136FB0000CE
:100A2400BC000BBE0029EF8DF084FFADF022E4CCB6
:100A3400F875F008EF2FFFEE33FEEC33FCEE9DEC7F
:100A4400984005FCEE9DFE0FD5F0E9E4CEFD22EDC5
:100A5400F8F5F0EE8420D21CFEADF075F008EF2F0F
:100A6400FFED33FD4007985006D5F0F222C398FD00
:050A74000FD5F0EA229D
:0C0A7900ECF608EDF608EEF608EFF622A9
:0C0A8500ECF208EDF208EEF208EFF222AD
:0A3FE2003098FDAF99C2987E0022CE
:00000001FF
