:1005510050000205DC05DC05DC05DC05DC05DC05FD
:0B056100DC05DC41000000410001004F
:1003A100120588120003E4900012F0A3F0900012ED
:1003B100E0FEA3E0FFC39408EE648094805028EF30
:1003C10025E0FFEE33FE74022FF58274003EF583C3
:1003D1007403F0A374E8F0900013E004F070CE9081
:1003E1000012E004F080C67FE87E0312056DE49000
:1003F1000012F0A3F0900012E0FEA3E0FFC3940806
:10040100EE648094805028EF25E0FFEE33FE740205
:100411002FF58274003EF5837407F0A374D0F09039
:100421000013E004F070CE900012E004F080C67F6B
:09043100E87E0312056D0203A729
:06058800E4F593F5942256
:1004C600EFB40800504E9004D3F82828730204EBCA
:1004D6000204F10204F70204FD0205030205090203
:1004E600050F020515ED24FF928022ED24FF92816F
:1004F60022ED24FF928222ED24FF928322ED24FF37
:10050600928422ED24FF928522ED24FF928622ED2D
:0505160024FF92872282
:10056D00EF1FAA0670011E4A60107C0B7DB8ED1DB1
:0A057D00AA0470011C4A60E880F433
:010587002251
:10000300438E4053890F438910E4F58B758D28C2C5
:080013008FD28ED2ABD2AF22D6
:10051B00900014EEF0A3EFF0FDAC06EC1202217B81
:10052B00E27A5879A37841120116A804A905AA0604
:10053B00AB07E4FFFE7D807C4712002112025A8F2D
:06054B008BEEFF8F8D22F4
:03001B000202E9F5
:1002E900C0E0C0F0C083C082C0D075D000C000C0DB
:0D02F90001C002C003C004C005C006C0075C
:10030600900001E0B40802E4F0900000E07021A340
:10031600E025E02402F582E43400F583E0FEA3E064
:10032600FF12051B900001E0FF7D011204C6803F0D
:10033600900001E025E02402F582E43400F583E034
:10034600FEA3E0FFC374C49FFF74099EFEC3EF942F
:1003560014EE6480948050047E007F1412051B9076
:100366000001E0FFE4FD1204C6900001E004F090F5
:100376000000E070047F0180027F00900000EFF033
:10038600D007D006D005D004D003D002D001D000CB
:0B039600D0D0D082D083D0F0D0E03275
:10001E000202C6E86480F8E933E83360110460F048
:10002E00ED33EC337009E8FCE9FDEAFEEBFF220448
:10003E0060DED3EB9FEA9EE99DE8C2E78CF0C2F743
:10004E0095F0400CE8CCF8E9CDF9EACEFAEBCFFB0F
:10005E0012029185D0F05804700320D5B3E80470D5
:10006E00075002B2D50202D092D5EC0460F7E4CC70
:10007E00C0E0C398F8603B94186008400DD0E0FBD8
:10008E000202A8E4FBFAC9FC8028E830E406E4C9C1
:10009E00FBE4CAFCE830E305E4C9CACBFCE854072C
:1000AE006010F8C3E913F9EA13FAEB13FBEC13FC37
:1000BE00D8F130F52FC3E49CFCEF9BFFEE9AFEEDDA
:1000CE0099FDD0E0FBEF4E4D4C701222DB03020285
:1000DE00CDEC2CFCEF33FFEE33FEED33FDED30E7D0
:1000EE00EB0202A8EF2BFFEE3AFEED39FDD0E0FB5E
:1000FE0050130BBB00030202D0ED13FDEE13FEEF07
:08010E0013FFEC13FC0202A830
:10011600EC4D6011E8497017ED33EC3304600DE4E3
:10012600FCFFFEFD22E933E8330470F80202C61232
:10013600029158046009E4CC248150062850090233
:1001460002D02840030202CDC0E0EB4A7044B980D9
:1001560006D0E0FB0202BCEF4E701CBD8008EBFF30
:10016600EAFEE9FD80EBE98DF0A4FEE5F00201FF71
:10017600E9CDF9EAFEEBFFEF89F0A4FCE5F0CE89C4
:10018600F0A42EFFE435F0CD89F0A42DFEE435F081
:100196008067EF4E7005BD80D780C3EF8BF0A4ACAF
:1001A600F0EE8BF0A42CFCE435F0F8EF8AF0A42CEA
:1001B600E5F038FCE433CB8DF0A42CFCE5F03BF8FD
:1001C600EE8AF0A42CFCE5F038F8E433CF89F0A4ED
:1001D6002CFCE5F038CF3400CE89F0A42FFFE5F0F3
:1001E6003EFEE433C98DF0A42EFEE5F039CD8AF04B
:1001F600A42FFFE5F03EFEE43DFD33D0E0FB5007C3
:100206000BBB000F0202D0EC2CFCEF33FFEE33FEEB
:06021600ED33FD0202A819
:10021C0075F020800E75F010800575F0087D007E5D
:10022C00007F003392D530D5031202DBEC33401043
:10023C00EF33FFEE33FEED33FDEC33FCD5F0ED2266
:0E024C00E5F0247EA2D513CC92E7CDCEFF22A2
:10025A00EDD2E7CD33EC3392D524814006E4FFFE9C
:10026A00FDFC22FCE4CFCECDCC24E0501174FF80FB
:10027A00EDC3CC13CCCD13CDCE13CECF13CF047098
:07028A00F030D5DE0202DBBB
:10029100E9D2E7C933E833F892D5EDD2E7CD33ECB3
:0702A10033FC5002B2D5222C
:1002A800EC30E7100FBF000C0EBE00080DBD0004B7
:1002B8000BEB6014A2D5EB13FCED92E7FD2274FF63
:1002C800FCFDFEFF22E480F8A2D574FF13FC7D80BC
:0302D800E480EFD0
:0300000002043ABD
:0C043A00787FE4F6D8FD7581070204818C
:0E02DB00C3E49FFFE49EFEE49DFDE49CFC2234
:100446000203A1E493A3F8E493A34003F68001F228
:1004560008DFF48029E493A3F85407240CC8C333B7
:10046600C4540F4420C8834004F456800146F6DF86
:10047600E4800B0102040810204080900551E47EC0
:10048600019360BCA3FF543F30E509541FFEE4937B
:10049600A360010ECF54C025E060A840B8E493A342
:1004A600FAE493A3F8E493A3C8C582C8CAC583CA6D
:1004B600F0A3C8C582C8CAC583CADFE9DEE780BE25
:01056C00008E
:00000001FF
